{
  "address": "0xFf3e1498E770109933Ecc285A81d83Bc37cABd7b",
  "abi": [
    {
      "inputs": [
        {
          "internalType": "contract ISuperToken",
          "name": "_fDAIx",
          "type": "address"
        },
        {
          "internalType": "contract ISuperfluid",
          "name": "host",
          "type": "address"
        }
      ],
      "stateMutability": "nonpayable",
      "type": "constructor"
    },
    {
      "anonymous": false,
      "inputs": [
        {
          "indexed": true,
          "internalType": "address",
          "name": "previousOwner",
          "type": "address"
        },
        {
          "indexed": true,
          "internalType": "address",
          "name": "newOwner",
          "type": "address"
        }
      ],
      "name": "OwnershipTransferred",
      "type": "event"
    },
    {
      "inputs": [
        {
          "internalType": "address",
          "name": "",
          "type": "address"
        }
      ],
      "name": "addressToCode",
      "outputs": [
        {
          "internalType": "bytes",
          "name": "",
          "type": "bytes"
        }
      ],
      "stateMutability": "view",
      "type": "function"
    },
    {
      "inputs": [],
      "name": "cfa",
      "outputs": [
        {
          "internalType": "contract IConstantFlowAgreementV1",
          "name": "",
          "type": "address"
        }
      ],
      "stateMutability": "view",
      "type": "function"
    },
    {
      "inputs": [],
      "name": "cfaV1",
      "outputs": [
        {
          "internalType": "contract ISuperfluid",
          "name": "host",
          "type": "address"
        },
        {
          "internalType": "contract IConstantFlowAgreementV1",
          "name": "cfa",
          "type": "address"
        }
      ],
      "stateMutability": "view",
      "type": "function"
    },
    {
      "inputs": [
        {
          "internalType": "uint256",
          "name": "",
          "type": "uint256"
        }
      ],
      "name": "codes",
      "outputs": [
        {
          "internalType": "string",
          "name": "",
          "type": "string"
        }
      ],
      "stateMutability": "view",
      "type": "function"
    },
    {
      "inputs": [
        {
          "internalType": "bytes",
          "name": "_code",
          "type": "bytes"
        },
        {
          "internalType": "address",
          "name": "receiver",
          "type": "address"
        }
      ],
      "name": "createDAIxFlow",
      "outputs": [],
      "stateMutability": "nonpayable",
      "type": "function"
    },
    {
      "inputs": [
        {
          "internalType": "address",
          "name": "receiver",
          "type": "address"
        }
      ],
      "name": "createFlowFromOwner",
      "outputs": [],
      "stateMutability": "nonpayable",
      "type": "function"
    },
    {
      "inputs": [
        {
          "internalType": "address",
          "name": "receiver",
          "type": "address"
        }
      ],
      "name": "deleteDAIxFlow",
      "outputs": [],
      "stateMutability": "nonpayable",
      "type": "function"
    },
    {
      "inputs": [],
      "name": "fDAIx",
      "outputs": [
        {
          "internalType": "contract ISuperToken",
          "name": "",
          "type": "address"
        }
      ],
      "stateMutability": "view",
      "type": "function"
    },
    {
      "inputs": [
        {
          "internalType": "uint256",
          "name": "amount",
          "type": "uint256"
        }
      ],
      "name": "fundContract",
      "outputs": [],
      "stateMutability": "nonpayable",
      "type": "function"
    },
    {
      "inputs": [],
      "name": "owner",
      "outputs": [
        {
          "internalType": "address",
          "name": "",
          "type": "address"
        }
      ],
      "stateMutability": "view",
      "type": "function"
    },
    {
      "inputs": [],
      "name": "renounceOwnership",
      "outputs": [],
      "stateMutability": "nonpayable",
      "type": "function"
    },
    {
      "inputs": [
        {
          "internalType": "address",
          "name": "newOwner",
          "type": "address"
        }
      ],
      "name": "transferOwnership",
      "outputs": [],
      "stateMutability": "nonpayable",
      "type": "function"
    },
    {
      "inputs": [
        {
          "internalType": "address",
          "name": "receiver",
          "type": "address"
        },
        {
          "internalType": "int96",
          "name": "amount",
          "type": "int96"
        }
      ],
      "name": "updateDAIxFlow",
      "outputs": [],
      "stateMutability": "nonpayable",
      "type": "function"
    },
    {
      "inputs": [
        {
          "internalType": "address",
          "name": "",
          "type": "address"
        }
      ],
      "name": "usedAddresses",
      "outputs": [
        {
          "internalType": "bool",
          "name": "",
          "type": "bool"
        }
      ],
      "stateMutability": "view",
      "type": "function"
    },
    {
      "inputs": [
        {
          "internalType": "bytes",
          "name": "",
          "type": "bytes"
        }
      ],
      "name": "usedCodes",
      "outputs": [
        {
          "internalType": "bool",
          "name": "",
          "type": "bool"
        }
      ],
      "stateMutability": "view",
      "type": "function"
    },
    {
      "inputs": [
        {
          "internalType": "uint256",
          "name": "amount",
          "type": "uint256"
        }
      ],
      "name": "withdrawFunds",
      "outputs": [],
      "stateMutability": "nonpayable",
      "type": "function"
    }
  ],
  "transactionHash": "0xd20f2ad0918287d8879bf3159991dd5c6872f8799f01ac691977ef557026d411",
  "args": [
    "0xe3cb950cb164a31c66e32c320a800d477019dcff",
    "0xF0d7d1D47109bA426B9D8A3Cde1941327af1eea3"
  ],
  "numDeployments": 2,
  "solcInputHash": "62bc4c472e405186204de33d221a6422",
  "bytecode": "0x60806040526040518061708001604052806040518060400160405280600681526020017f6c5841463332000000000000000000000000000000000000000000000000000081525081526020016040518060400160405280600681526020017f667354435533000000000000000000000000000000000000000000000000000081525081526020016040518060400160405280600681526020017f5267536f646e000000000000000000000000000000000000000000000000000081525081526020016040518060400160405280600681526020017f43454d7a4d56000000000000000000000000000000000000000000000000000081525081526020016040518060400160405280600681526020017f6b5357396f33000000000000000000000000000000000000000000000000000081525081526020016040518060400160405280600681526020017f596e7a426e76000000000000000000000000000000000000000000000000000081525081526020016040518060400160405280600681526020017f4e6c347a7539000000000000000000000000000000000000000000000000000081525081526020016040518060400160405280600681526020017f686177524e54000000000000000000000000000000000000000000000000000081525081526020016040518060400160405280600681526020017f497877486763000000000000000000000000000000000000000000000000000081525081526020016040518060400160405280600681526020017f4845684b384d000000000000000000000000000000000000000000000000000081525081526020016040518060400160405280600681526020017f59776d50776c000000000000000000000000000000000000000000000000000081525081526020016040518060400160405280600681526020017f6e457a333566000000000000000000000000000000000000000000000000000081525081526020016040518060400160405280600681526020017f477342713633000000000000000000000000000000000000000000000000000081525081526020016040518060400160405280600681526020017f666934317571000000000000000000000000000000000000000000000000000081525081526020016040518060400160405280600681526020017f746f7045504b000000000000000000000000000000000000000000000000000081525081526020016040518060400160405280600681526020017f754f5842526e000000000000000000000000000000000000000000000000000081525081526020016040518060400160405280600681526020017f3643746d4651000000000000000000000000000000000000000000000000000081525081526020016040518060400160405280600681526020017f49526e344132000000000000000000000000000000000000000000000000000081525081526020016040518060400160405280600681526020017f63726e544445000000000000000000000000000000000000000000000000000081525081526020016040518060400160405280600681526020017f5045316c3047000000000000000000000000000000000000000000000000000081525081526020016040518060400160405280600681526020017f6a7876786769000000000000000000000000000000000000000000000000000081525081526020016040518060400160405280600681526020017f67446a303651000000000000000000000000000000000000000000000000000081525081526020016040518060400160405280600681526020017f6a4531323655000000000000000000000000000000000000000000000000000081525081526020016040518060400160405280600681526020017f6879516b517a000000000000000000000000000000000000000000000000000081525081526020016040518060400160405280600681526020017f436b49746849000000000000000000000000000000000000000000000000000081525081526020016040518060400160405280600681526020017f304559576668000000000000000000000000000000000000000000000000000081525081526020016040518060400160405280600681526020017f4f4c306a4962000000000000000000000000000000000000000000000000000081525081526020016040518060400160405280600681526020017f52565a636172000000000000000000000000000000000000000000000000000081525081526020016040518060400160405280600681526020017f6a384d546537000000000000000000000000000000000000000000000000000081525081526020016040518060400160405280600681526020017f514a4b487357000000000000000000000000000000000000000000000000000081525081526020016040518060400160405280600681526020017f446b6549616f000000000000000000000000000000000000000000000000000081525081526020016040518060400160405280600681526020017f436864773862000000000000000000000000000000000000000000000000000081525081526020016040518060400160405280600681526020017f327148644c67000000000000000000000000000000000000000000000000000081525081526020016040518060400160405280600681526020017f573366506444000000000000000000000000000000000000000000000000000081525081526020016040518060400160405280600681526020017f706142504242000000000000000000000000000000000000000000000000000081525081526020016040518060400160405280600681526020017f487646614c63000000000000000000000000000000000000000000000000000081525081526020016040518060400160405280600681526020017f725638467137000000000000000000000000000000000000000000000000000081525081526020016040518060400160405280600681526020017f6f36496e4c79000000000000000000000000000000000000000000000000000081525081526020016040518060400160405280600681526020017f494370344a43000000000000000000000000000000000000000000000000000081525081526020016040518060400160405280600681526020017f3366484b5053000000000000000000000000000000000000000000000000000081525081526020016040518060400160405280600681526020017f465161557848000000000000000000000000000000000000000000000000000081525081526020016040518060400160405280600681526020017f7a486a34566a000000000000000000000000000000000000000000000000000081525081526020016040518060400160405280600681526020017f5a665549536a000000000000000000000000000000000000000000000000000081525081526020016040518060400160405280600681526020017f66444171536a000000000000000000000000000000000000000000000000000081525081526020016040518060400160405280600681526020017f334263614433000000000000000000000000000000000000000000000000000081525081526020016040518060400160405280600681526020017f4242306d5250000000000000000000000000000000000000000000000000000081525081526020016040518060400160405280600681526020017f42755553504b000000000000000000000000000000000000000000000000000081525081526020016040518060400160405280600681526020017f577568565662000000000000000000000000000000000000000000000000000081525081526020016040518060400160405280600681526020017f324e3756504c000000000000000000000000000000000000000000000000000081525081526020016040518060400160405280600681526020017f484b45787a4c000000000000000000000000000000000000000000000000000081525081526020016040518060400160405280600681526020017f344b635a6251000000000000000000000000000000000000000000000000000081525081526020016040518060400160405280600681526020017f73556c43546f000000000000000000000000000000000000000000000000000081525081526020016040518060400160405280600681526020017f387a577a694d000000000000000000000000000000000000000000000000000081525081526020016040518060400160405280600681526020017f564b65696563000000000000000000000000000000000000000000000000000081525081526020016040518060400160405280600681526020017f766b70524965000000000000000000000000000000000000000000000000000081525081526020016040518060400160405280600681526020017f4e774855436e000000000000000000000000000000000000000000000000000081525081526020016040518060400160405280600681526020017f636c4b5a5655000000000000000000000000000000000000000000000000000081525081526020016040518060400160405280600681526020017f596249566e52000000000000000000000000000000000000000000000000000081525081526020016040518060400160405280600681526020017f7a584558664b000000000000000000000000000000000000000000000000000081525081526020016040518060400160405280600681526020017f755136666b5a000000000000000000000000000000000000000000000000000081525081526020016040518060400160405280600681526020017f4c4149565563000000000000000000000000000000000000000000000000000081525081526020016040518060400160405280600681526020017f7932496b3474000000000000000000000000000000000000000000000000000081525081526020016040518060400160405280600681526020017f423669575074000000000000000000000000000000000000000000000000000081525081526020016040518060400160405280600681526020017f456148484c56000000000000000000000000000000000000000000000000000081525081526020016040518060400160405280600681526020017f354830573441000000000000000000000000000000000000000000000000000081525081526020016040518060400160405280600681526020017f786734686247000000000000000000000000000000000000000000000000000081525081526020016040518060400160405280600681526020017f464247667358000000000000000000000000000000000000000000000000000081525081526020016040518060400160405280600681526020017f326734425a4a000000000000000000000000000000000000000000000000000081525081526020016040518060400160405280600681526020017f7766414e584b000000000000000000000000000000000000000000000000000081525081526020016040518060400160405280600681526020017f317754774249000000000000000000000000000000000000000000000000000081525081526020016040518060400160405280600681526020017f4963724e366b000000000000000000000000000000000000000000000000000081525081526020016040518060400160405280600681526020017f49507938345a000000000000000000000000000000000000000000000000000081525081526020016040518060400160405280600681526020017f6f4a6c53516f000000000000000000000000000000000000000000000000000081525081526020016040518060400160405280600681526020017f6847324a714b000000000000000000000000000000000000000000000000000081525081526020016040518060400160405280600681526020017f4d4374794c6b000000000000000000000000000000000000000000000000000081525081526020016040518060400160405280600681526020017f4d596a67624e000000000000000000000000000000000000000000000000000081525081526020016040518060400160405280600681526020017f674f35357869000000000000000000000000000000000000000000000000000081525081526020016040518060400160405280600681526020017f516857635350000000000000000000000000000000000000000000000000000081525081526020016040518060400160405280600681526020017f6f7646427535000000000000000000000000000000000000000000000000000081525081526020016040518060400160405280600681526020017f426877696643000000000000000000000000000000000000000000000000000081525081526020016040518060400160405280600681526020017f524147694251000000000000000000000000000000000000000000000000000081525081526020016040518060400160405280600681526020017f5a416c61464a000000000000000000000000000000000000000000000000000081525081526020016040518060400160405280600681526020017f4d46626e5344000000000000000000000000000000000000000000000000000081525081526020016040518060400160405280600681526020017f5a4f35413735000000000000000000000000000000000000000000000000000081525081526020016040518060400160405280600681526020017f35576d4c4b63000000000000000000000000000000000000000000000000000081525081526020016040518060400160405280600681526020017f426e4c453345000000000000000000000000000000000000000000000000000081525081526020016040518060400160405280600681526020017f634f7a43336f000000000000000000000000000000000000000000000000000081525081526020016040518060400160405280600681526020017f79676e466448000000000000000000000000000000000000000000000000000081525081526020016040518060400160405280600681526020017f574462527436000000000000000000000000000000000000000000000000000081525081526020016040518060400160405280600681526020017f767166375459000000000000000000000000000000000000000000000000000081525081526020016040518060400160405280600681526020017f393930374147000000000000000000000000000000000000000000000000000081525081526020016040518060400160405280600681526020017f627372704b36000000000000000000000000000000000000000000000000000081525081526020016040518060400160405280600681526020017f39714c54636c000000000000000000000000000000000000000000000000000081525081526020016040518060400160405280600681526020017f6f4f614b7953000000000000000000000000000000000000000000000000000081525081526020016040518060400160405280600681526020017f694b4a534c49000000000000000000000000000000000000000000000000000081525081526020016040518060400160405280600681526020017f6e745a6a7231000000000000000000000000000000000000000000000000000081525081526020016040518060400160405280600681526020017f337145464f37000000000000000000000000000000000000000000000000000081525081526020016040518060400160405280600681526020017f6b3072513665000000000000000000000000000000000000000000000000000081525081526020016040518060400160405280600681526020017f334133683064000000000000000000000000000000000000000000000000000081525081526020016040518060400160405280600681526020017f70716b343536000000000000000000000000000000000000000000000000000081525081526020016040518060400160405280600681526020017f74324372614a000000000000000000000000000000000000000000000000000081525081526020016040518060400160405280600681526020017f307a764c5a71000000000000000000000000000000000000000000000000000081525081526020016040518060400160405280600681526020017f46345a6d5145000000000000000000000000000000000000000000000000000081525081526020016040518060400160405280600681526020017f42366a746962000000000000000000000000000000000000000000000000000081525081526020016040518060400160405280600681526020017f73374d4e4e75000000000000000000000000000000000000000000000000000081525081526020016040518060400160405280600681526020017f6e784f34624d000000000000000000000000000000000000000000000000000081525081526020016040518060400160405280600681526020017f526973417963000000000000000000000000000000000000000000000000000081525081526020016040518060400160405280600681526020017f3373496b7668000000000000000000000000000000000000000000000000000081525081526020016040518060400160405280600681526020017f7a456270787a000000000000000000000000000000000000000000000000000081525081526020016040518060400160405280600681526020017f343654386263000000000000000000000000000000000000000000000000000081525081526020016040518060400160405280600681526020017f4a363362556f000000000000000000000000000000000000000000000000000081525081526020016040518060400160405280600681526020017f34506d364f6a000000000000000000000000000000000000000000000000000081525081526020016040518060400160405280600681526020017f333634386e78000000000000000000000000000000000000000000000000000081525081526020016040518060400160405280600681526020017f4a48464d3675000000000000000000000000000000000000000000000000000081525081526020016040518060400160405280600681526020017f304d6568415a000000000000000000000000000000000000000000000000000081525081526020016040518060400160405280600681526020017f7a564e556c70000000000000000000000000000000000000000000000000000081525081526020016040518060400160405280600681526020017f536662584350000000000000000000000000000000000000000000000000000081525081526020016040518060400160405280600681526020017f336656355438000000000000000000000000000000000000000000000000000081525081526020016040518060400160405280600681526020017f556a65795164000000000000000000000000000000000000000000000000000081525081526020016040518060400160405280600681526020017f635278383874000000000000000000000000000000000000000000000000000081525081526020016040518060400160405280600681526020017f32514f6e6d55000000000000000000000000000000000000000000000000000081525081526020016040518060400160405280600681526020017f324752574978000000000000000000000000000000000000000000000000000081525081526020016040518060400160405280600681526020017f754144774c30000000000000000000000000000000000000000000000000000081525081526020016040518060400160405280600681526020017f5552396e6b6d000000000000000000000000000000000000000000000000000081525081526020016040518060400160405280600681526020017f494c4e326543000000000000000000000000000000000000000000000000000081525081526020016040518060400160405280600681526020017f554735545878000000000000000000000000000000000000000000000000000081525081526020016040518060400160405280600681526020017f626b5645526c000000000000000000000000000000000000000000000000000081525081526020016040518060400160405280600681526020017f62714963414a000000000000000000000000000000000000000000000000000081525081526020016040518060400160405280600681526020017f6b596d644766000000000000000000000000000000000000000000000000000081525081526020016040518060400160405280600681526020017f424b61444a66000000000000000000000000000000000000000000000000000081525081526020016040518060400160405280600681526020017f343170306947000000000000000000000000000000000000000000000000000081525081526020016040518060400160405280600681526020017f6e755a777654000000000000000000000000000000000000000000000000000081525081526020016040518060400160405280600681526020017f68596e305137000000000000000000000000000000000000000000000000000081525081526020016040518060400160405280600681526020017f6d4e61684371000000000000000000000000000000000000000000000000000081525081526020016040518060400160405280600681526020017f6a3352505673000000000000000000000000000000000000000000000000000081525081526020016040518060400160405280600681526020017f483976564439000000000000000000000000000000000000000000000000000081525081526020016040518060400160405280600681526020017f6f73764a4855000000000000000000000000000000000000000000000000000081525081526020016040518060400160405280600681526020017f57776a63304c000000000000000000000000000000000000000000000000000081525081526020016040518060400160405280600681526020017f464859716b6c000000000000000000000000000000000000000000000000000081525081526020016040518060400160405280600681526020017f4551414f5639000000000000000000000000000000000000000000000000000081525081526020016040518060400160405280600681526020017f375677706139000000000000000000000000000000000000000000000000000081525081526020016040518060400160405280600681526020017f415468317664000000000000000000000000000000000000000000000000000081525081526020016040518060400160405280600681526020017f4d7136715533000000000000000000000000000000000000000000000000000081525081526020016040518060400160405280600681526020017f346166757443000000000000000000000000000000000000000000000000000081525081526020016040518060400160405280600681526020017f354e7672664c000000000000000000000000000000000000000000000000000081525081526020016040518060400160405280600681526020017f3063714e3179000000000000000000000000000000000000000000000000000081525081526020016040518060400160405280600681526020017f466a4e364c5a000000000000000000000000000000000000000000000000000081525081526020016040518060400160405280600681526020017f703964364c53000000000000000000000000000000000000000000000000000081525081526020016040518060400160405280600681526020017f4d70786e6b72000000000000000000000000000000000000000000000000000081525081526020016040518060400160405280600681526020017f6769664a674b000000000000000000000000000000000000000000000000000081525081526020016040518060400160405280600681526020017f6a4239716a50000000000000000000000000000000000000000000000000000081525081526020016040518060400160405280600681526020017f6676444d616d000000000000000000000000000000000000000000000000000081525081526020016040518060400160405280600681526020017f797478616831000000000000000000000000000000000000000000000000000081525081526020016040518060400160405280600681526020017f54695169616b000000000000000000000000000000000000000000000000000081525081526020016040518060400160405280600681526020017f634b7253714b000000000000000000000000000000000000000000000000000081525081526020016040518060400160405280600681526020017f594245584430000000000000000000000000000000000000000000000000000081525081526020016040518060400160405280600681526020017f55496268596b000000000000000000000000000000000000000000000000000081525081526020016040518060400160405280600681526020017f67624f694a7a000000000000000000000000000000000000000000000000000081525081526020016040518060400160405280600681526020017f727142317665000000000000000000000000000000000000000000000000000081525081526020016040518060400160405280600681526020017f695537686c65000000000000000000000000000000000000000000000000000081525081526020016040518060400160405280600681526020017f353264503438000000000000000000000000000000000000000000000000000081525081526020016040518060400160405280600681526020017f4e4946336a35000000000000000000000000000000000000000000000000000081525081526020016040518060400160405280600681526020017f584b51316979000000000000000000000000000000000000000000000000000081525081526020016040518060400160405280600681526020017f4e5943303477000000000000000000000000000000000000000000000000000081525081526020016040518060400160405280600681526020017f46746c693566000000000000000000000000000000000000000000000000000081525081526020016040518060400160405280600681526020017f516654475761000000000000000000000000000000000000000000000000000081525081526020016040518060400160405280600681526020017f677874595677000000000000000000000000000000000000000000000000000081525081526020016040518060400160405280600681526020017f6a5535537665000000000000000000000000000000000000000000000000000081525081526020016040518060400160405280600681526020017f6a784e517a62000000000000000000000000000000000000000000000000000081525081526020016040518060400160405280600681526020017f494a4d6e7561000000000000000000000000000000000000000000000000000081525081526020016040518060400160405280600681526020017f495a39747743000000000000000000000000000000000000000000000000000081525081526020016040518060400160405280600681526020017f51464c536172000000000000000000000000000000000000000000000000000081525081526020016040518060400160405280600681526020017f394351746b37000000000000000000000000000000000000000000000000000081525081526020016040518060400160405280600681526020017f7430664f4e37000000000000000000000000000000000000000000000000000081525081526020016040518060400160405280600681526020017f7a7333556e5a000000000000000000000000000000000000000000000000000081525081526020016040518060400160405280600681526020017f337677496255000000000000000000000000000000000000000000000000000081525081526020016040518060400160405280600681526020017f694741355045000000000000000000000000000000000000000000000000000081525081526020016040518060400160405280600681526020017f715032524c38000000000000000000000000000000000000000000000000000081525081526020016040518060400160405280600681526020017f477771654b72000000000000000000000000000000000000000000000000000081525081526020016040518060400160405280600681526020017f396339443555000000000000000000000000000000000000000000000000000081525081526020016040518060400160405280600681526020017f38786a567436000000000000000000000000000000000000000000000000000081525081526020016040518060400160405280600681526020017f4872334f5532000000000000000000000000000000000000000000000000000081525081526020016040518060400160405280600681526020017f4e31396b5376000000000000000000000000000000000000000000000000000081525081526020016040518060400160405280600681526020017f333754796f37000000000000000000000000000000000000000000000000000081525081526020016040518060400160405280600681526020017f4b6937795933000000000000000000000000000000000000000000000000000081525081526020016040518060400160405280600681526020017f436c75736131000000000000000000000000000000000000000000000000000081525081526020016040518060400160405280600681526020017f56636f754637000000000000000000000000000000000000000000000000000081525081526020016040518060400160405280600681526020017f746e57746851000000000000000000000000000000000000000000000000000081525081526020016040518060400160405280600681526020017f59317575444b000000000000000000000000000000000000000000000000000081525081526020016040518060400160405280600681526020017f504667733265000000000000000000000000000000000000000000000000000081525081526020016040518060400160405280600681526020017f7a62784e5937000000000000000000000000000000000000000000000000000081525081526020016040518060400160405280600681526020017f566d61704371000000000000000000000000000000000000000000000000000081525081526020016040518060400160405280600681526020017f4a79326b5176000000000000000000000000000000000000000000000000000081525081526020016040518060400160405280600681526020017f436b53704f66000000000000000000000000000000000000000000000000000081525081526020016040518060400160405280600681526020017f5a446b776564000000000000000000000000000000000000000000000000000081525081526020016040518060400160405280600681526020017f71536e505a4d000000000000000000000000000000000000000000000000000081525081526020016040518060400160405280600681526020017f56456f717164000000000000000000000000000000000000000000000000000081525081526020016040518060400160405280600681526020017f444271714b66000000000000000000000000000000000000000000000000000081525081526020016040518060400160405280600681526020017f397132774c74000000000000000000000000000000000000000000000000000081525081526020016040518060400160405280600681526020017f6d574f6d4d72000000000000000000000000000000000000000000000000000081525081526020016040518060400160405280600681526020017f49786d34586a000000000000000000000000000000000000000000000000000081525081526020016040518060400160405280600681526020017f4761694a3852000000000000000000000000000000000000000000000000000081525081526020016040518060400160405280600681526020017f473252495755000000000000000000000000000000000000000000000000000081525081526020016040518060400160405280600681526020017f533969753932000000000000000000000000000000000000000000000000000081525081526020016040518060400160405280600681526020017f68454d357066000000000000000000000000000000000000000000000000000081525081526020016040518060400160405280600681526020017f6b6e67644e38000000000000000000000000000000000000000000000000000081525081526020016040518060400160405280600681526020017f515771666162000000000000000000000000000000000000000000000000000081525081526020016040518060400160405280600681526020017f637261794363000000000000000000000000000000000000000000000000000081525081526020016040518060400160405280600681526020017f42344f774246000000000000000000000000000000000000000000000000000081525081526020016040518060400160405280600681526020017f456845706e77000000000000000000000000000000000000000000000000000081525081526020016040518060400160405280600681526020017f70574e303350000000000000000000000000000000000000000000000000000081525081526020016040518060400160405280600681526020017f6835797a4859000000000000000000000000000000000000000000000000000081525081526020016040518060400160405280600681526020017f4b4151376357000000000000000000000000000000000000000000000000000081525081526020016040518060400160405280600681526020017f493438474832000000000000000000000000000000000000000000000000000081525081526020016040518060400160405280600681526020017f69616835516c000000000000000000000000000000000000000000000000000081525081526020016040518060400160405280600681526020017f6457546c4a41000000000000000000000000000000000000000000000000000081525081526020016040518060400160405280600681526020017f73547378425a000000000000000000000000000000000000000000000000000081525081526020016040518060400160405280600681526020017f49486b4b4b38000000000000000000000000000000000000000000000000000081525081526020016040518060400160405280600681526020017f355450677032000000000000000000000000000000000000000000000000000081525081526020016040518060400160405280600681526020017f644a4171327a000000000000000000000000000000000000000000000000000081525081526020016040518060400160405280600681526020017f437979797564000000000000000000000000000000000000000000000000000081525081526020016040518060400160405280600681526020017f524372736e46000000000000000000000000000000000000000000000000000081525081526020016040518060400160405280600681526020017f713255727672000000000000000000000000000000000000000000000000000081525081526020016040518060400160405280600681526020017f784d79453045000000000000000000000000000000000000000000000000000081525081526020016040518060400160405280600681526020017f567249555273000000000000000000000000000000000000000000000000000081525081526020016040518060400160405280600681526020017f774b63345478000000000000000000000000000000000000000000000000000081525081526020016040518060400160405280600681526020017f75436f544d6a000000000000000000000000000000000000000000000000000081525081526020016040518060400160405280600681526020017f6a5153386a79000000000000000000000000000000000000000000000000000081525081526020016040518060400160405280600681526020017f625838517050000000000000000000000000000000000000000000000000000081525081526020016040518060400160405280600681526020017f316c6e473535000000000000000000000000000000000000000000000000000081525081526020016040518060400160405280600681526020017f6e7737467577000000000000000000000000000000000000000000000000000081525081526020016040518060400160405280600681526020017f304736623645000000000000000000000000000000000000000000000000000081525081526020016040518060400160405280600681526020017f7739454d5950000000000000000000000000000000000000000000000000000081525081526020016040518060400160405280600681526020017f51396e643273000000000000000000000000000000000000000000000000000081525081526020016040518060400160405280600681526020017f383850623778000000000000000000000000000000000000000000000000000081525081526020016040518060400160405280600681526020017f6574534b315a000000000000000000000000000000000000000000000000000081525081526020016040518060400160405280600681526020017f4c6d4c56396a000000000000000000000000000000000000000000000000000081525081526020016040518060400160405280600681526020017f556a4b6a364a000000000000000000000000000000000000000000000000000081525081526020016040518060400160405280600681526020017f734875344831000000000000000000000000000000000000000000000000000081525081526020016040518060400160405280600681526020017f665374753369000000000000000000000000000000000000000000000000000081525081526020016040518060400160405280600681526020017f306a50717a71000000000000000000000000000000000000000000000000000081525081526020016040518060400160405280600681526020017f683061617a7a000000000000000000000000000000000000000000000000000081525081526020016040518060400160405280600681526020017f75673257436e000000000000000000000000000000000000000000000000000081525081526020016040518060400160405280600681526020017f62655a44337a000000000000000000000000000000000000000000000000000081525081526020016040518060400160405280600681526020017f427757383666000000000000000000000000000000000000000000000000000081525081526020016040518060400160405280600681526020017f47364d733675000000000000000000000000000000000000000000000000000081525081526020016040518060400160405280600681526020017f774d6a473378000000000000000000000000000000000000000000000000000081525081526020016040518060400160405280600681526020017f565955366e69000000000000000000000000000000000000000000000000000081525081526020016040518060400160405280600681526020017f33384b314764000000000000000000000000000000000000000000000000000081525081526020016040518060400160405280600681526020017f446c3534556e000000000000000000000000000000000000000000000000000081525081526020016040518060400160405280600681526020017f785841463865000000000000000000000000000000000000000000000000000081525081526020016040518060400160405280600681526020017f7655474d4d6f000000000000000000000000000000000000000000000000000081525081526020016040518060400160405280600681526020017f376f495a5448000000000000000000000000000000000000000000000000000081525081526020016040518060400160405280600681526020017f615069775041000000000000000000000000000000000000000000000000000081525081526020016040518060400160405280600681526020017f443233574472000000000000000000000000000000000000000000000000000081525081526020016040518060400160405280600681526020017f31704b557169000000000000000000000000000000000000000000000000000081525081526020016040518060400160405280600681526020017f35334c535938000000000000000000000000000000000000000000000000000081525081526020016040518060400160405280600681526020017f374f74534c79000000000000000000000000000000000000000000000000000081525081526020016040518060400160405280600681526020017f4732344e3162000000000000000000000000000000000000000000000000000081525081526020016040518060400160405280600681526020017f397673587736000000000000000000000000000000000000000000000000000081525081526020016040518060400160405280600681526020017f4c4a52517733000000000000000000000000000000000000000000000000000081525081526020016040518060400160405280600681526020017f6a4275324e72000000000000000000000000000000000000000000000000000081525081526020016040518060400160405280600681526020017f6c3352795673000000000000000000000000000000000000000000000000000081525081526020016040518060400160405280600681526020017f4c393273576b000000000000000000000000000000000000000000000000000081525081526020016040518060400160405280600681526020017f675138367165000000000000000000000000000000000000000000000000000081525081526020016040518060400160405280600681526020017f4b51794a6a69000000000000000000000000000000000000000000000000000081525081526020016040518060400160405280600681526020017f5a7047365155000000000000000000000000000000000000000000000000000081525081526020016040518060400160405280600681526020017f593038734a56000000000000000000000000000000000000000000000000000081525081526020016040518060400160405280600681526020017f767167463956000000000000000000000000000000000000000000000000000081525081526020016040518060400160405280600681526020017f6f4b52435769000000000000000000000000000000000000000000000000000081525081526020016040518060400160405280600681526020017f41516753484e000000000000000000000000000000000000000000000000000081525081526020016040518060400160405280600681526020017f33344a73585a000000000000000000000000000000000000000000000000000081525081526020016040518060400160405280600681526020017f52334463587a000000000000000000000000000000000000000000000000000081525081526020016040518060400160405280600681526020017f424c6a343967000000000000000000000000000000000000000000000000000081525081526020016040518060400160405280600681526020017f6672504f7238000000000000000000000000000000000000000000000000000081525081526020016040518060400160405280600681526020017f723668346248000000000000000000000000000000000000000000000000000081525081526020016040518060400160405280600681526020017f554355354951000000000000000000000000000000000000000000000000000081525081526020016040518060400160405280600681526020017f374b79517641000000000000000000000000000000000000000000000000000081525081526020016040518060400160405280600681526020017f6d4e66774977000000000000000000000000000000000000000000000000000081525081526020016040518060400160405280600681526020017f326e6f4a6875000000000000000000000000000000000000000000000000000081525081526020016040518060400160405280600681526020017f727443334367000000000000000000000000000000000000000000000000000081525081526020016040518060400160405280600681526020017f684c69436934000000000000000000000000000000000000000000000000000081525081526020016040518060400160405280600681526020017f6c713136676c000000000000000000000000000000000000000000000000000081525081526020016040518060400160405280600681526020017f725078666a55000000000000000000000000000000000000000000000000000081525081526020016040518060400160405280600681526020017f525778724965000000000000000000000000000000000000000000000000000081525081526020016040518060400160405280600681526020017f4f7a4b615457000000000000000000000000000000000000000000000000000081525081526020016040518060400160405280600681526020017f306c4278484d000000000000000000000000000000000000000000000000000081525081526020016040518060400160405280600681526020017f7a56466c3777000000000000000000000000000000000000000000000000000081525081526020016040518060400160405280600681526020017f764658524a31000000000000000000000000000000000000000000000000000081525081526020016040518060400160405280600681526020017f7a78444d7031000000000000000000000000000000000000000000000000000081525081526020016040518060400160405280600681526020017f31576d535579000000000000000000000000000000000000000000000000000081525081526020016040518060400160405280600681526020017f365878516244000000000000000000000000000000000000000000000000000081525081526020016040518060400160405280600681526020017f4334304f584b000000000000000000000000000000000000000000000000000081525081526020016040518060400160405280600681526020017f31785a646372000000000000000000000000000000000000000000000000000081525081526020016040518060400160405280600681526020017f634b4866564d000000000000000000000000000000000000000000000000000081525081526020016040518060400160405280600681526020017f5564456c5671000000000000000000000000000000000000000000000000000081525081526020016040518060400160405280600681526020017f7338564c4678000000000000000000000000000000000000000000000000000081525081526020016040518060400160405280600681526020017f526572587275000000000000000000000000000000000000000000000000000081525081526020016040518060400160405280600681526020017f7767766b3566000000000000000000000000000000000000000000000000000081525081526020016040518060400160405280600681526020017f4756376b566c000000000000000000000000000000000000000000000000000081525081526020016040518060400160405280600681526020017f486f34527530000000000000000000000000000000000000000000000000000081525081526020016040518060400160405280600681526020017f374857394454000000000000000000000000000000000000000000000000000081525081526020016040518060400160405280600681526020017f624a436a7954000000000000000000000000000000000000000000000000000081525081526020016040518060400160405280600681526020017f494671445336000000000000000000000000000000000000000000000000000081525081526020016040518060400160405280600681526020017f71473332324b000000000000000000000000000000000000000000000000000081525081526020016040518060400160405280600681526020017f4f676d4e466c000000000000000000000000000000000000000000000000000081525081526020016040518060400160405280600681526020017f34334657466f000000000000000000000000000000000000000000000000000081525081526020016040518060400160405280600681526020017f394b56385756000000000000000000000000000000000000000000000000000081525081526020016040518060400160405280600681526020017f50376c6a6452000000000000000000000000000000000000000000000000000081525081526020016040518060400160405280600681526020017f55476c316f67000000000000000000000000000000000000000000000000000081525081526020016040518060400160405280600681526020017f427461706a6b000000000000000000000000000000000000000000000000000081525081526020016040518060400160405280600681526020017f33616e766f6d000000000000000000000000000000000000000000000000000081525081526020016040518060400160405280600681526020017f495470667769000000000000000000000000000000000000000000000000000081525081526020016040518060400160405280600681526020017f6e493555706f000000000000000000000000000000000000000000000000000081525081526020016040518060400160405280600681526020017f664830783269000000000000000000000000000000000000000000000000000081525081526020016040518060400160405280600681526020017f524a6752746c000000000000000000000000000000000000000000000000000081525081526020016040518060400160405280600681526020017f366169793350000000000000000000000000000000000000000000000000000081525081526020016040518060400160405280600681526020017f43486f76314e000000000000000000000000000000000000000000000000000081525081526020016040518060400160405280600681526020017f333332394b38000000000000000000000000000000000000000000000000000081525081526020016040518060400160405280600681526020017f434159417767000000000000000000000000000000000000000000000000000081525081526020016040518060400160405280600681526020017f3239664e6978000000000000000000000000000000000000000000000000000081525081526020016040518060400160405280600681526020017f687938506f51000000000000000000000000000000000000000000000000000081525081526020016040518060400160405280600681526020017f58346e744146000000000000000000000000000000000000000000000000000081525081526020016040518060400160405280600681526020017f61536a724f4a000000000000000000000000000000000000000000000000000081525081526020016040518060400160405280600681526020017f535948477564000000000000000000000000000000000000000000000000000081525081526020016040518060400160405280600681526020017f545069307862000000000000000000000000000000000000000000000000000081525081526020016040518060400160405280600681526020017f436a34386730000000000000000000000000000000000000000000000000000081525081526020016040518060400160405280600681526020017f65583642464a000000000000000000000000000000000000000000000000000081525081526020016040518060400160405280600681526020017f6556697a5654000000000000000000000000000000000000000000000000000081525081526020016040518060400160405280600681526020017f786f76665144000000000000000000000000000000000000000000000000000081525081526020016040518060400160405280600681526020017f5859634f574d000000000000000000000000000000000000000000000000000081525081526020016040518060400160405280600681526020017f783176504631000000000000000000000000000000000000000000000000000081525081526020016040518060400160405280600681526020017f6a504b365368000000000000000000000000000000000000000000000000000081525081526020016040518060400160405280600681526020017f38437449694a000000000000000000000000000000000000000000000000000081525081526020016040518060400160405280600681526020017f367076653435000000000000000000000000000000000000000000000000000081525081526020016040518060400160405280600681526020017f6b624b486f34000000000000000000000000000000000000000000000000000081525081526020016040518060400160405280600681526020017f7037447a4547000000000000000000000000000000000000000000000000000081525081526020016040518060400160405280600681526020017f423734476f74000000000000000000000000000000000000000000000000000081525081526020016040518060400160405280600681526020017f46315848346a000000000000000000000000000000000000000000000000000081525081526020016040518060400160405280600681526020017f5a4d666f4d4e000000000000000000000000000000000000000000000000000081525081526020016040518060400160405280600681526020017f6668364e6648000000000000000000000000000000000000000000000000000081525081526020016040518060400160405280600681526020017f325073754276000000000000000000000000000000000000000000000000000081525081526020016040518060400160405280600681526020017f395533503844000000000000000000000000000000000000000000000000000081525081526020016040518060400160405280600681526020017f454f57487470000000000000000000000000000000000000000000000000000081525081526020016040518060400160405280600681526020017f663741487131000000000000000000000000000000000000000000000000000081525081526020016040518060400160405280600681526020017f613271397630000000000000000000000000000000000000000000000000000081525081526020016040518060400160405280600681526020017f337a52576268000000000000000000000000000000000000000000000000000081525081526020016040518060400160405280600681526020017f67524a317134000000000000000000000000000000000000000000000000000081525081526020016040518060400160405280600681526020017f304363643149000000000000000000000000000000000000000000000000000081525081526020016040518060400160405280600681526020017f715151687353000000000000000000000000000000000000000000000000000081525081526020016040518060400160405280600681526020017f6f414c323155000000000000000000000000000000000000000000000000000081525081526020016040518060400160405280600681526020017f44345a4b6e65000000000000000000000000000000000000000000000000000081525081526020016040518060400160405280600681526020017f6a56584c7869000000000000000000000000000000000000000000000000000081525081526020016040518060400160405280600681526020017f6d6d6b464b78000000000000000000000000000000000000000000000000000081525081526020016040518060400160405280600681526020017f786d364c375a000000000000000000000000000000000000000000000000000081525081526020016040518060400160405280600681526020017f775650587646000000000000000000000000000000000000000000000000000081525081526020016040518060400160405280600681526020017f666b74707577000000000000000000000000000000000000000000000000000081525081526020016040518060400160405280600681526020017f5a4445706238000000000000000000000000000000000000000000000000000081525081526020016040518060400160405280600681526020017f467376565356000000000000000000000000000000000000000000000000000081525081526020016040518060400160405280600681526020017f477663574f50000000000000000000000000000000000000000000000000000081525081526020016040518060400160405280600681526020017f704737374838000000000000000000000000000000000000000000000000000081525081526020016040518060400160405280600681526020017f617a59797443000000000000000000000000000000000000000000000000000081525081526020016040518060400160405280600681526020017f745163456b79000000000000000000000000000000000000000000000000000081525081526020016040518060400160405280600681526020017f683837414436000000000000000000000000000000000000000000000000000081525081526020016040518060400160405280600681526020017f37586633584c000000000000000000000000000000000000000000000000000081525081526020016040518060400160405280600681526020017f736c72316e76000000000000000000000000000000000000000000000000000081525081526020016040518060400160405280600681526020017f4e5259466547000000000000000000000000000000000000000000000000000081525081526020016040518060400160405280600681526020017f6575754e3333000000000000000000000000000000000000000000000000000081525081526020016040518060400160405280600681526020017f447761694a41000000000000000000000000000000000000000000000000000081525081526020016040518060400160405280600681526020017f574648747678000000000000000000000000000000000000000000000000000081525081526020016040518060400160405280600681526020017f493476377a75000000000000000000000000000000000000000000000000000081525081526020016040518060400160405280600681526020017f6d7851464f50000000000000000000000000000000000000000000000000000081525081526020016040518060400160405280600681526020017f476231684f6f000000000000000000000000000000000000000000000000000081525081526020016040518060400160405280600681526020017f4e6b32745531000000000000000000000000000000000000000000000000000081525081526020016040518060400160405280600681526020017f6a5074775269000000000000000000000000000000000000000000000000000081525081526020016040518060400160405280600681526020017f37526e503373000000000000000000000000000000000000000000000000000081525081526020016040518060400160405280600681526020017f6455736c7141000000000000000000000000000000000000000000000000000081525081526020016040518060400160405280600681526020017f536837593676000000000000000000000000000000000000000000000000000081525081526020016040518060400160405280600681526020017f7574447a584e000000000000000000000000000000000000000000000000000081525081526020016040518060400160405280600681526020017f3959536e447a000000000000000000000000000000000000000000000000000081525081526020016040518060400160405280600681526020017f567a36534947000000000000000000000000000000000000000000000000000081525081526020016040518060400160405280600681526020017f56636a624e45000000000000000000000000000000000000000000000000000081525081526020016040518060400160405280600681526020017f38376b454136000000000000000000000000000000000000000000000000000081525081526020016040518060400160405280600681526020017f46464871776a000000000000000000000000000000000000000000000000000081525081526020016040518060400160405280600681526020017f3752465a6a76000000000000000000000000000000000000000000000000000081525081526020016040518060400160405280600681526020017f554247767047000000000000000000000000000000000000000000000000000081525081526020016040518060400160405280600681526020017f6f556a4b6154000000000000000000000000000000000000000000000000000081525081526020016040518060400160405280600681526020017f643363376d30000000000000000000000000000000000000000000000000000081525081526020016040518060400160405280600681526020017f37453946384d000000000000000000000000000000000000000000000000000081525081526020016040518060400160405280600681526020017f334968577151000000000000000000000000000000000000000000000000000081525081526020016040518060400160405280600681526020017f467542613046000000000000000000000000000000000000000000000000000081525081526020016040518060400160405280600681526020017f4252726e5465000000000000000000000000000000000000000000000000000081525081526020016040518060400160405280600681526020017f76656c433066000000000000000000000000000000000000000000000000000081525081526020016040518060400160405280600681526020017f536f4577686a000000000000000000000000000000000000000000000000000081525081526020016040518060400160405280600681526020017f4c3534376c6e000000000000000000000000000000000000000000000000000081525081526020016040518060400160405280600681526020017f7a6a7761594d000000000000000000000000000000000000000000000000000081525081526020016040518060400160405280600681526020017f6c3246614e37000000000000000000000000000000000000000000000000000081525081526020016040518060400160405280600681526020017f745a7a30596e000000000000000000000000000000000000000000000000000081525081526020016040518060400160405280600681526020017f456c32393841000000000000000000000000000000000000000000000000000081525081526020016040518060400160405280600681526020017f4e3263736f66000000000000000000000000000000000000000000000000000081525081526020016040518060400160405280600681526020017f76534f587451000000000000000000000000000000000000000000000000000081525081526020016040518060400160405280600681526020017f544c6a346835000000000000000000000000000000000000000000000000000081525081526020016040518060400160405280600681526020017f6a7759636174000000000000000000000000000000000000000000000000000081525081526020016040518060400160405280600681526020017f65347559707a000000000000000000000000000000000000000000000000000081525081526020016040518060400160405280600681526020017f675561754945000000000000000000000000000000000000000000000000000081525081526020016040518060400160405280600681526020017f7067774a3738000000000000000000000000000000000000000000000000000081525081526020016040518060400160405280600681526020017f4735397a6b4a000000000000000000000000000000000000000000000000000081525081526020016040518060400160405280600681526020017f78684a736943000000000000000000000000000000000000000000000000000081525081526020016040518060400160405280600681526020017f516a69695444000000000000000000000000000000000000000000000000000081525081526020016040518060400160405280600681526020017f4a67316e4345000000000000000000000000000000000000000000000000000081525081526020016040518060400160405280600681526020017f30445342365a000000000000000000000000000000000000000000000000000081525081526020016040518060400160405280600681526020017f446773574565000000000000000000000000000000000000000000000000000081525081526020016040518060400160405280600681526020017f346f53574c32000000000000000000000000000000000000000000000000000081525081526020016040518060400160405280600681526020017f366a32716a77000000000000000000000000000000000000000000000000000081525081526020016040518060400160405280600681526020017f656b7737314b000000000000000000000000000000000000000000000000000081525081526020016040518060400160405280600681526020017f6f686b6d4943000000000000000000000000000000000000000000000000000081525081526020016040518060400160405280600681526020017f416775596338000000000000000000000000000000000000000000000000000081525081526020016040518060400160405280600681526020017f7a5246705277000000000000000000000000000000000000000000000000000081525081526020016040518060400160405280600681526020017f737445415730000000000000000000000000000000000000000000000000000081525081526020016040518060400160405280600681526020017f72704e357677000000000000000000000000000000000000000000000000000081525081526020016040518060400160405280600681526020017f6853474c3459000000000000000000000000000000000000000000000000000081525081526020016040518060400160405280600681526020017f7349466c6444000000000000000000000000000000000000000000000000000081525081526020016040518060400160405280600681526020017f34644f767056000000000000000000000000000000000000000000000000000081525081526020016040518060400160405280600681526020017f74713339797a000000000000000000000000000000000000000000000000000081525081526020016040518060400160405280600681526020017f53666d684a6c000000000000000000000000000000000000000000000000000081525081526020016040518060400160405280600681526020017f30366a71564d000000000000000000000000000000000000000000000000000081525081526020016040518060400160405280600681526020017f556c326b586d000000000000000000000000000000000000000000000000000081525081526020016040518060400160405280600681526020017f706434776933000000000000000000000000000000000000000000000000000081525081526020016040518060400160405280600681526020017f4c596c34504e000000000000000000000000000000000000000000000000000081525081526020016040518060400160405280600681526020017f455a42564a30000000000000000000000000000000000000000000000000000081525081526020016040518060400160405280600681526020017f4f35324c3074000000000000000000000000000000000000000000000000000081525081526020016040518060400160405280600681526020017f545476794e75000000000000000000000000000000000000000000000000000081525081526020016040518060400160405280600681526020017f44704f4d4e39000000000000000000000000000000000000000000000000000081525081526020016040518060400160405280600681526020017f485072543941000000000000000000000000000000000000000000000000000081525081526020016040518060400160405280600681526020017f556c544e744b000000000000000000000000000000000000000000000000000081525081526020016040518060400160405280600681526020017f42393434736f000000000000000000000000000000000000000000000000000081525081526020016040518060400160405280600681526020017f354849396b68000000000000000000000000000000000000000000000000000081525081526020016040518060400160405280600681526020017f474757584358000000000000000000000000000000000000000000000000000081525081526020016040518060400160405280600681526020017f516c766d4a54000000000000000000000000000000000000000000000000000081525081526020016040518060400160405280600681526020017f483747657853000000000000000000000000000000000000000000000000000081525081526020016040518060400160405280600681526020017f3933715a304e000000000000000000000000000000000000000000000000000081525081526020016040518060400160405280600681526020017f45696569456a000000000000000000000000000000000000000000000000000081525081526020016040518060400160405280600681526020017f764362443354000000000000000000000000000000000000000000000000000081525081526020016040518060400160405280600681526020017f7a4a574c5845000000000000000000000000000000000000000000000000000081525081526020016040518060400160405280600681526020017f665454503545000000000000000000000000000000000000000000000000000081525081526020016040518060400160405280600681526020017f4b56364d756e000000000000000000000000000000000000000000000000000081525081526020016040518060400160405280600681526020017f5548696f6376000000000000000000000000000000000000000000000000000081525081526020016040518060400160405280600681526020017f713554514b75000000000000000000000000000000000000000000000000000081525081526020016040518060400160405280600681526020017f4b376c74366e000000000000000000000000000000000000000000000000000081525081526020016040518060400160405280600681526020017f645749395457000000000000000000000000000000000000000000000000000081525081526020016040518060400160405280600681526020017f6f4c76773636000000000000000000000000000000000000000000000000000081525081526020016040518060400160405280600681526020017f5544306a7455000000000000000000000000000000000000000000000000000081525081526020016040518060400160405280600681526020017f775176525a4c000000000000000000000000000000000000000000000000000081525081526020016040518060400160405280600681526020017f4c734a51504a000000000000000000000000000000000000000000000000000081525081526020016040518060400160405280600681526020017f304963744c6f000000000000000000000000000000000000000000000000000081525081526020016040518060400160405280600681526020017f537468586950000000000000000000000000000000000000000000000000000081525081526020016040518060400160405280600681526020017f4c356d787743000000000000000000000000000000000000000000000000000081525081526020016040518060400160405280600681526020017f5a4264324f6d000000000000000000000000000000000000000000000000000081525081526020016040518060400160405280600681526020017f6a5678754e7a000000000000000000000000000000000000000000000000000081525081526020016040518060400160405280600681526020017f62654d704837000000000000000000000000000000000000000000000000000081525081526020016040518060400160405280600681526020017f4a6838577a38000000000000000000000000000000000000000000000000000081525081526020016040518060400160405280600681526020017f66766c476538000000000000000000000000000000000000000000000000000081525081526020016040518060400160405280600681526020017f4838676e786f000000000000000000000000000000000000000000000000000081525081526020016040518060400160405280600681526020017f56546a777962000000000000000000000000000000000000000000000000000081525081526020016040518060400160405280600681526020017f69357348744a000000000000000000000000000000000000000000000000000081525081526020016040518060400160405280600681526020017f4d3732784238000000000000000000000000000000000000000000000000000081525081526020016040518060400160405280600681526020017f5065326f4d65000000000000000000000000000000000000000000000000000081525081526020016040518060400160405280600681526020017f557162765139000000000000000000000000000000000000000000000000000081525081526020016040518060400160405280600681526020017f653672705852000000000000000000000000000000000000000000000000000081525081526020016040518060400160405280600681526020017f364e68493742000000000000000000000000000000000000000000000000000081525081526020016040518060400160405280600681526020017f416c67445167000000000000000000000000000000000000000000000000000081525081526020016040518060400160405280600681526020017f433170644975000000000000000000000000000000000000000000000000000081525081526020016040518060400160405280600681526020017f443932785961000000000000000000000000000000000000000000000000000081525081526020016040518060400160405280600681526020017f774879596762000000000000000000000000000000000000000000000000000081525081526020016040518060400160405280600681526020017f526f49585a4b000000000000000000000000000000000000000000000000000081525081526020016040518060400160405280600681526020017f4b7042346835000000000000000000000000000000000000000000000000000081525081526020016040518060400160405280600681526020017f6c6e79534646000000000000000000000000000000000000000000000000000081525081526020016040518060400160405280600681526020017f663279476774000000000000000000000000000000000000000000000000000081525081526020016040518060400160405280600681526020017f396752766a6c000000000000000000000000000000000000000000000000000081525081526020016040518060400160405280600681526020017f546550754156000000000000000000000000000000000000000000000000000081525081526020016040518060400160405280600681526020017f376b48627570000000000000000000000000000000000000000000000000000081525081526020016040518060400160405280600681526020017f6a49466d6546000000000000000000000000000000000000000000000000000081525081526020016040518060400160405280600681526020017f464c5a4f5064000000000000000000000000000000000000000000000000000081525081526020016040518060400160405280600681526020017f476177786975000000000000000000000000000000000000000000000000000081525081526020016040518060400160405280600681526020017f505363685656000000000000000000000000000000000000000000000000000081525081526020016040518060400160405280600681526020017f515a36446565000000000000000000000000000000000000000000000000000081525081526020016040518060400160405280600681526020017f38473759716b000000000000000000000000000000000000000000000000000081525081526020016040518060400160405280600681526020017f50463868375a000000000000000000000000000000000000000000000000000081525081526020016040518060400160405280600681526020017f686174784a30000000000000000000000000000000000000000000000000000081525081526020016040518060400160405280600681526020017f435041706934000000000000000000000000000000000000000000000000000081525081526020016040518060400160405280600681526020017f34743938454e000000000000000000000000000000000000000000000000000081525081526020016040518060400160405280600681526020017f5a52374b4d46000000000000000000000000000000000000000000000000000081525081526020016040518060400160405280600681526020017f313747646435000000000000000000000000000000000000000000000000000081525081526020016040518060400160405280600681526020017f7952326c7776000000000000000000000000000000000000000000000000000081525081526020016040518060400160405280600681526020017f666c7469614c000000000000000000000000000000000000000000000000000081525081526020016040518060400160405280600681526020017f674e41463036000000000000000000000000000000000000000000000000000081525081526020016040518060400160405280600681526020017f6e5754687663000000000000000000000000000000000000000000000000000081525081526020016040518060400160405280600681526020017f643544553364000000000000000000000000000000000000000000000000000081525081526020016040518060400160405280600681526020017f495a38417137000000000000000000000000000000000000000000000000000081525081526020016040518060400160405280600681526020017f31534d464538000000000000000000000000000000000000000000000000000081525081526020016040518060400160405280600681526020017f783748517461000000000000000000000000000000000000000000000000000081525081526020016040518060400160405280600681526020017f533457635965000000000000000000000000000000000000000000000000000081525081526020016040518060400160405280600681526020017f58506262686f000000000000000000000000000000000000000000000000000081525081526020016040518060400160405280600681526020017f78424e54354a000000000000000000000000000000000000000000000000000081525081526020016040518060400160405280600681526020017f766d34597050000000000000000000000000000000000000000000000000000081525081526020016040518060400160405280600681526020017f484b71736233000000000000000000000000000000000000000000000000000081525081526020016040518060400160405280600681526020017f433431465a41000000000000000000000000000000000000000000000000000081525081526020016040518060400160405280600681526020017f487559755346000000000000000000000000000000000000000000000000000081525081526020016040518060400160405280600681526020017f664542776b68000000000000000000000000000000000000000000000000000081525081526020016040518060400160405280600681526020017f654b584a3472000000000000000000000000000000000000000000000000000081525081526020016040518060400160405280600681526020017f73677a433050000000000000000000000000000000000000000000000000000081525081526020016040518060400160405280600681526020017f733372696431000000000000000000000000000000000000000000000000000081525081526020016040518060400160405280600681526020017f4c5863775248000000000000000000000000000000000000000000000000000081525081526020016040518060400160405280600681526020017f6c7365345855000000000000000000000000000000000000000000000000000081525081526020016040518060400160405280600681526020017f504737774f48000000000000000000000000000000000000000000000000000081525081526020016040518060400160405280600681526020017f515a4e356864000000000000000000000000000000000000000000000000000081525081526020016040518060400160405280600681526020017f6a30346a5a33000000000000000000000000000000000000000000000000000081525081526020016040518060400160405280600681526020017f6a5653305879000000000000000000000000000000000000000000000000000081525081526020016040518060400160405280600681526020017f4a3358344362000000000000000000000000000000000000000000000000000081525081526020016040518060400160405280600681526020017f706755644b48000000000000000000000000000000000000000000000000000081525081526020016040518060400160405280600681526020017f645732586e53000000000000000000000000000000000000000000000000000081525081526020016040518060400160405280600681526020017f423473304542000000000000000000000000000000000000000000000000000081525081526020016040518060400160405280600681526020017f6b413358746d000000000000000000000000000000000000000000000000000081525081526020016040518060400160405280600681526020017f615a6c694c76000000000000000000000000000000000000000000000000000081525081526020016040518060400160405280600681526020017f45736f765336000000000000000000000000000000000000000000000000000081525081526020016040518060400160405280600681526020017f416543423151000000000000000000000000000000000000000000000000000081525081526020016040518060400160405280600681526020017f6c5239694965000000000000000000000000000000000000000000000000000081525081526020016040518060400160405280600681526020017f786347536669000000000000000000000000000000000000000000000000000081525081526020016040518060400160405280600681526020017f546372324473000000000000000000000000000000000000000000000000000081525081526020016040518060400160405280600681526020017f6d3844644f57000000000000000000000000000000000000000000000000000081525081526020016040518060400160405280600681526020017f6d5a52396c33000000000000000000000000000000000000000000000000000081525081526020016040518060400160405280600681526020017f7678576a6537000000000000000000000000000000000000000000000000000081525081526020016040518060400160405280600681526020017f653662366f4f000000000000000000000000000000000000000000000000000081525081526020016040518060400160405280600681526020017f646849777a45000000000000000000000000000000000000000000000000000081525081526020016040518060400160405280600681526020017f6b316a384b69000000000000000000000000000000000000000000000000000081525081526020016040518060400160405280600681526020017f55586c6c7956000000000000000000000000000000000000000000000000000081525081526020016040518060400160405280600681526020017f426834696b71000000000000000000000000000000000000000000000000000081525081526020016040518060400160405280600681526020017f774d39777452000000000000000000000000000000000000000000000000000081525081526020016040518060400160405280600681526020017f38444d756237000000000000000000000000000000000000000000000000000081525081526020016040518060400160405280600681526020017f4f3563455938000000000000000000000000000000000000000000000000000081525081526020016040518060400160405280600681526020017f5a4a65313178000000000000000000000000000000000000000000000000000081525081526020016040518060400160405280600681526020017f566847586650000000000000000000000000000000000000000000000000000081525081526020016040518060400160405280600681526020017f795072464e66000000000000000000000000000000000000000000000000000081525081526020016040518060400160405280600681526020017f41666b647176000000000000000000000000000000000000000000000000000081525081526020016040518060400160405280600681526020017f776d72616965000000000000000000000000000000000000000000000000000081525081526020016040518060400160405280600681526020017f724d57674a4f000000000000000000000000000000000000000000000000000081525081526020016040518060400160405280600681526020017f51527a59304f000000000000000000000000000000000000000000000000000081525081526020016040518060400160405280600681526020017f33464f577436000000000000000000000000000000000000000000000000000081525081526020016040518060400160405280600681526020017f6c3876724a34000000000000000000000000000000000000000000000000000081525081526020016040518060400160405280600681526020017f495871667664000000000000000000000000000000000000000000000000000081525081526020016040518060400160405280600681526020017f316a6c506965000000000000000000000000000000000000000000000000000081525081526020016040518060400160405280600681526020017f613263476c38000000000000000000000000000000000000000000000000000081525081526020016040518060400160405280600681526020017f4b6c716d6b67000000000000000000000000000000000000000000000000000081525081526020016040518060400160405280600681526020017f307342685a63000000000000000000000000000000000000000000000000000081525081526020016040518060400160405280600681526020017f4671444e774b000000000000000000000000000000000000000000000000000081525081526020016040518060400160405280600681526020017f5a306d303141000000000000000000000000000000000000000000000000000081525081526020016040518060400160405280600681526020017f446737534933000000000000000000000000000000000000000000000000000081525081526020016040518060400160405280600681526020017f555a6c543044000000000000000000000000000000000000000000000000000081525081526020016040518060400160405280600681526020017f4b7676524539000000000000000000000000000000000000000000000000000081525081526020016040518060400160405280600681526020017f347a58443749000000000000000000000000000000000000000000000000000081525081526020016040518060400160405280600681526020017f38736e756f50000000000000000000000000000000000000000000000000000081525081526020016040518060400160405280600681526020017f6b7761466d31000000000000000000000000000000000000000000000000000081525081526020016040518060400160405280600681526020017f4a37356e346d000000000000000000000000000000000000000000000000000081525081526020016040518060400160405280600681526020017f68543455766b000000000000000000000000000000000000000000000000000081525081526020016040518060400160405280600681526020017f367655745235000000000000000000000000000000000000000000000000000081525081526020016040518060400160405280600681526020017f6f49627a764f000000000000000000000000000000000000000000000000000081525081526020016040518060400160405280600681526020017f766269434a43000000000000000000000000000000000000000000000000000081525081526020016040518060400160405280600681526020017f674447334876000000000000000000000000000000000000000000000000000081525081526020016040518060400160405280600681526020017f624944683355000000000000000000000000000000000000000000000000000081525081526020016040518060400160405280600681526020017f66444c41657a000000000000000000000000000000000000000000000000000081525081526020016040518060400160405280600681526020017f6f4f73356457000000000000000000000000000000000000000000000000000081525081526020016040518060400160405280600681526020017f503973364735000000000000000000000000000000000000000000000000000081525081526020016040518060400160405280600681526020017f3078786a6f70000000000000000000000000000000000000000000000000000081525081526020016040518060400160405280600681526020017f765637516c44000000000000000000000000000000000000000000000000000081525081526020016040518060400160405280600681526020017f766c44373637000000000000000000000000000000000000000000000000000081525081526020016040518060400160405280600681526020017f7a38364c5646000000000000000000000000000000000000000000000000000081525081526020016040518060400160405280600681526020017f63746a594167000000000000000000000000000000000000000000000000000081525081526020016040518060400160405280600681526020017f74393833454f000000000000000000000000000000000000000000000000000081525081526020016040518060400160405280600681526020017f6b69774d4432000000000000000000000000000000000000000000000000000081525081526020016040518060400160405280600681526020017f4e4e64334539000000000000000000000000000000000000000000000000000081525081526020016040518060400160405280600681526020017f54366b6b3933000000000000000000000000000000000000000000000000000081525081526020016040518060400160405280600681526020017f534f45786c70000000000000000000000000000000000000000000000000000081525081526020016040518060400160405280600681526020017f675275306971000000000000000000000000000000000000000000000000000081525081526020016040518060400160405280600681526020017f6146744a6653000000000000000000000000000000000000000000000000000081525081526020016040518060400160405280600681526020017f366662343350000000000000000000000000000000000000000000000000000081525081526020016040518060400160405280600681526020017f774b32515a6b000000000000000000000000000000000000000000000000000081525081526020016040518060400160405280600681526020017f596c57584137000000000000000000000000000000000000000000000000000081525081526020016040518060400160405280600681526020017f315847734d67000000000000000000000000000000000000000000000000000081525081526020016040518060400160405280600681526020017f654a51366946000000000000000000000000000000000000000000000000000081525081526020016040518060400160405280600681526020017f435347427538000000000000000000000000000000000000000000000000000081525081526020016040518060400160405280600681526020017f54357a524d36000000000000000000000000000000000000000000000000000081525081526020016040518060400160405280600681526020017f394961585046000000000000000000000000000000000000000000000000000081525081526020016040518060400160405280600681526020017f626e38786b58000000000000000000000000000000000000000000000000000081525081526020016040518060400160405280600681526020017f346f79414d32000000000000000000000000000000000000000000000000000081525081526020016040518060400160405280600681526020017f793665313462000000000000000000000000000000000000000000000000000081525081526020016040518060400160405280600681526020017f5172697a427a000000000000000000000000000000000000000000000000000081525081526020016040518060400160405280600681526020017f4e6831617278000000000000000000000000000000000000000000000000000081525081526020016040518060400160405280600681526020017f50466b344463000000000000000000000000000000000000000000000000000081525081526020016040518060400160405280600681526020017f4e534f464146000000000000000000000000000000000000000000000000000081525081526020016040518060400160405280600681526020017f72734c304e56000000000000000000000000000000000000000000000000000081525081526020016040518060400160405280600681526020017f344932494166000000000000000000000000000000000000000000000000000081525081526020016040518060400160405280600681526020017f58447774624d000000000000000000000000000000000000000000000000000081525081526020016040518060400160405280600681526020017f61557362626f000000000000000000000000000000000000000000000000000081525081526020016040518060400160405280600681526020017f5530594f4b76000000000000000000000000000000000000000000000000000081525081526020016040518060400160405280600681526020017f4f3474566d7a000000000000000000000000000000000000000000000000000081525081526020016040518060400160405280600681526020017f4f64524f3839000000000000000000000000000000000000000000000000000081525081526020016040518060400160405280600681526020017f73635a744178000000000000000000000000000000000000000000000000000081525081526020016040518060400160405280600681526020017f416679394e74000000000000000000000000000000000000000000000000000081525081526020016040518060400160405280600681526020017f625561676664000000000000000000000000000000000000000000000000000081525081526020016040518060400160405280600681526020017f5757446c7733000000000000000000000000000000000000000000000000000081525081526020016040518060400160405280600681526020017f5a6753495944000000000000000000000000000000000000000000000000000081525081526020016040518060400160405280600681526020017f6d4b75464178000000000000000000000000000000000000000000000000000081525081526020016040518060400160405280600681526020017f4a7765756e72000000000000000000000000000000000000000000000000000081525081526020016040518060400160405280600681526020017f6f3358446e47000000000000000000000000000000000000000000000000000081525081526020016040518060400160405280600681526020017f3978375a3630000000000000000000000000000000000000000000000000000081525081526020016040518060400160405280600681526020017f303076684b76000000000000000000000000000000000000000000000000000081525081526020016040518060400160405280600681526020017f4c764a616b4f000000000000000000000000000000000000000000000000000081525081526020016040518060400160405280600681526020017f467179483444000000000000000000000000000000000000000000000000000081525081526020016040518060400160405280600681526020017f4d61436b6878000000000000000000000000000000000000000000000000000081525081526020016040518060400160405280600681526020017f353878667876000000000000000000000000000000000000000000000000000081525081526020016040518060400160405280600681526020017f42776549344d000000000000000000000000000000000000000000000000000081525081526020016040518060400160405280600681526020017f394355534470000000000000000000000000000000000000000000000000000081525081526020016040518060400160405280600681526020017f43776351384d000000000000000000000000000000000000000000000000000081525081526020016040518060400160405280600681526020017f575234617147000000000000000000000000000000000000000000000000000081525081526020016040518060400160405280600681526020017f4a614c617343000000000000000000000000000000000000000000000000000081525081526020016040518060400160405280600681526020017f416e76317a69000000000000000000000000000000000000000000000000000081525081526020016040518060400160405280600681526020017f67434259736d000000000000000000000000000000000000000000000000000081525081526020016040518060400160405280600681526020017f654555496b4f000000000000000000000000000000000000000000000000000081525081526020016040518060400160405280600681526020017f596e39677870000000000000000000000000000000000000000000000000000081525081526020016040518060400160405280600681526020017f644b566a6146000000000000000000000000000000000000000000000000000081525081526020016040518060400160405280600681526020017f624d3135754c000000000000000000000000000000000000000000000000000081525081526020016040518060400160405280600681526020017f553478497657000000000000000000000000000000000000000000000000000081525081526020016040518060400160405280600681526020017f6d7865374d36000000000000000000000000000000000000000000000000000081525081526020016040518060400160405280600681526020017f613730467038000000000000000000000000000000000000000000000000000081525081526020016040518060400160405280600681526020017f794a38336b71000000000000000000000000000000000000000000000000000081525081526020016040518060400160405280600681526020017f333537747137000000000000000000000000000000000000000000000000000081525081526020016040518060400160405280600681526020017f62496279506d000000000000000000000000000000000000000000000000000081525081526020016040518060400160405280600681526020017f666274766e48000000000000000000000000000000000000000000000000000081525081526020016040518060400160405280600681526020017f44666f6c5664000000000000000000000000000000000000000000000000000081525081526020016040518060400160405280600681526020017f5966396f4f38000000000000000000000000000000000000000000000000000081525081526020016040518060400160405280600681526020017f7a56677a686d000000000000000000000000000000000000000000000000000081525081526020016040518060400160405280600681526020017f766a47527731000000000000000000000000000000000000000000000000000081525081526020016040518060400160405280600681526020017f684e76526f55000000000000000000000000000000000000000000000000000081525081526020016040518060400160405280600681526020017f614832494863000000000000000000000000000000000000000000000000000081525081526020016040518060400160405280600681526020017f78564e617342000000000000000000000000000000000000000000000000000081525081526020016040518060400160405280600681526020017f66565549664a000000000000000000000000000000000000000000000000000081525081526020016040518060400160405280600681526020017f627638667937000000000000000000000000000000000000000000000000000081525081526020016040518060400160405280600681526020017f304c70773244000000000000000000000000000000000000000000000000000081525081526020016040518060400160405280600681526020017f315574304a57000000000000000000000000000000000000000000000000000081525081526020016040518060400160405280600681526020017f6a67616a714c000000000000000000000000000000000000000000000000000081525081526020016040518060400160405280600681526020017f4257786a695a000000000000000000000000000000000000000000000000000081525081526020016040518060400160405280600681526020017f586e4a6a434d000000000000000000000000000000000000000000000000000081525081526020016040518060400160405280600681526020017f617a65515836000000000000000000000000000000000000000000000000000081525081526020016040518060400160405280600681526020017f614362387734000000000000000000000000000000000000000000000000000081525081526020016040518060400160405280600681526020017f6e6151467847000000000000000000000000000000000000000000000000000081525081526020016040518060400160405280600681526020017f666b65513978000000000000000000000000000000000000000000000000000081525081526020016040518060400160405280600681526020017f624e78685573000000000000000000000000000000000000000000000000000081525081526020016040518060400160405280600681526020017f6d6d3173556a000000000000000000000000000000000000000000000000000081525081526020016040518060400160405280600681526020017f6142667a6163000000000000000000000000000000000000000000000000000081525081526020016040518060400160405280600681526020017f686135784767000000000000000000000000000000000000000000000000000081525081526020016040518060400160405280600681526020017f4138417a486e000000000000000000000000000000000000000000000000000081525081526020016040518060400160405280600681526020017f626c63565438000000000000000000000000000000000000000000000000000081525081526020016040518060400160405280600681526020017f5a31626c646c000000000000000000000000000000000000000000000000000081525081526020016040518060400160405280600681526020017f6d6975726153000000000000000000000000000000000000000000000000000081525081526020016040518060400160405280600681526020017f77584f683546000000000000000000000000000000000000000000000000000081525081526020016040518060400160405280600681526020017f346e30515778000000000000000000000000000000000000000000000000000081525081526020016040518060400160405280600681526020017f3937786d5269000000000000000000000000000000000000000000000000000081525081526020016040518060400160405280600681526020017f535677394975000000000000000000000000000000000000000000000000000081525081526020016040518060400160405280600681526020017f54694c72736a000000000000000000000000000000000000000000000000000081525081526020016040518060400160405280600681526020017f663277333162000000000000000000000000000000000000000000000000000081525081526020016040518060400160405280600681526020017f324f6358784c000000000000000000000000000000000000000000000000000081525081526020016040518060400160405280600681526020017f443243655631000000000000000000000000000000000000000000000000000081525081526020016040518060400160405280600681526020017f4c4f30506153000000000000000000000000000000000000000000000000000081525081526020016040518060400160405280600681526020017f5458696e7748000000000000000000000000000000000000000000000000000081525081526020016040518060400160405280600681526020017f4b5564425878000000000000000000000000000000000000000000000000000081525081526020016040518060400160405280600681526020017f7666484c6759000000000000000000000000000000000000000000000000000081525081526020016040518060400160405280600681526020017f563754646970000000000000000000000000000000000000000000000000000081525081526020016040518060400160405280600681526020017f794d6e4b706d000000000000000000000000000000000000000000000000000081525081526020016040518060400160405280600681526020017f65616e69376a000000000000000000000000000000000000000000000000000081525081526020016040518060400160405280600681526020017f643765617765000000000000000000000000000000000000000000000000000081525081526020016040518060400160405280600681526020017f6d6264635973000000000000000000000000000000000000000000000000000081525081526020016040518060400160405280600681526020017f694439684e4d000000000000000000000000000000000000000000000000000081525081526020016040518060400160405280600681526020017f733449565456000000000000000000000000000000000000000000000000000081525081526020016040518060400160405280600681526020017f786e51504e48000000000000000000000000000000000000000000000000000081525081526020016040518060400160405280600681526020017f457552393154000000000000000000000000000000000000000000000000000081525081526020016040518060400160405280600681526020017f434e59623667000000000000000000000000000000000000000000000000000081525081526020016040518060400160405280600681526020017f365a3355744a000000000000000000000000000000000000000000000000000081525081526020016040518060400160405280600681526020017f567a37537869000000000000000000000000000000000000000000000000000081525081526020016040518060400160405280600681526020017f795a4e527954000000000000000000000000000000000000000000000000000081525081526020016040518060400160405280600681526020017f5470496c6659000000000000000000000000000000000000000000000000000081525081526020016040518060400160405280600681526020017f4a44586c4c35000000000000000000000000000000000000000000000000000081525081526020016040518060400160405280600681526020017f345445694841000000000000000000000000000000000000000000000000000081525081526020016040518060400160405280600681526020017f395878785768000000000000000000000000000000000000000000000000000081525081526020016040518060400160405280600681526020017f756237525352000000000000000000000000000000000000000000000000000081525081526020016040518060400160405280600681526020017f697a654b4341000000000000000000000000000000000000000000000000000081525081526020016040518060400160405280600681526020017f697854314465000000000000000000000000000000000000000000000000000081525081526020016040518060400160405280600681526020017f6a4c31686e59000000000000000000000000000000000000000000000000000081525081526020016040518060400160405280600681526020017f476250553657000000000000000000000000000000000000000000000000000081525081526020016040518060400160405280600681526020017f684d6c724f4e000000000000000000000000000000000000000000000000000081525081526020016040518060400160405280600681526020017f6c356977354d000000000000000000000000000000000000000000000000000081525081526020016040518060400160405280600681526020017f50386d4f5a50000000000000000000000000000000000000000000000000000081525081526020016040518060400160405280600681526020017f634c71535272000000000000000000000000000000000000000000000000000081525081526020016040518060400160405280600681526020017f30634e583849000000000000000000000000000000000000000000000000000081525081526020016040518060400160405280600681526020017f4d4b57646647000000000000000000000000000000000000000000000000000081525081526020016040518060400160405280600681526020017f77666b504943000000000000000000000000000000000000000000000000000081525081526020016040518060400160405280600681526020017f716d4d6e3737000000000000000000000000000000000000000000000000000081525081526020016040518060400160405280600681526020017f62674951784f000000000000000000000000000000000000000000000000000081525081526020016040518060400160405280600681526020017f736a724d7663000000000000000000000000000000000000000000000000000081525081526020016040518060400160405280600681526020017f493833774f41000000000000000000000000000000000000000000000000000081525081526020016040518060400160405280600681526020017f58486f75636e000000000000000000000000000000000000000000000000000081525081526020016040518060400160405280600681526020017f354631314553000000000000000000000000000000000000000000000000000081525081526020016040518060400160405280600681526020017f773174313067000000000000000000000000000000000000000000000000000081525081526020016040518060400160405280600681526020017f3677514d6236000000000000000000000000000000000000000000000000000081525081526020016040518060400160405280600681526020017f596159436432000000000000000000000000000000000000000000000000000081525081526020016040518060400160405280600681526020017f6541576d3161000000000000000000000000000000000000000000000000000081525081526020016040518060400160405280600681526020017f4a416b566d50000000000000000000000000000000000000000000000000000081525081526020016040518060400160405280600681526020017f4a4579753131000000000000000000000000000000000000000000000000000081525081526020016040518060400160405280600681526020017f6f5148684159000000000000000000000000000000000000000000000000000081525081526020016040518060400160405280600681526020017f3066694b7850000000000000000000000000000000000000000000000000000081525081526020016040518060400160405280600681526020017f676331664d67000000000000000000000000000000000000000000000000000081525081526020016040518060400160405280600681526020017f717051756165000000000000000000000000000000000000000000000000000081525081526020016040518060400160405280600681526020017f726a566a3246000000000000000000000000000000000000000000000000000081525081526020016040518060400160405280600681526020017f6b376d524941000000000000000000000000000000000000000000000000000081525081526020016040518060400160405280600681526020017f72394c645256000000000000000000000000000000000000000000000000000081525081526020016040518060400160405280600681526020017f354732337969000000000000000000000000000000000000000000000000000081525081526020016040518060400160405280600681526020017f64393349305a000000000000000000000000000000000000000000000000000081525081526020016040518060400160405280600681526020017f6c4165675566000000000000000000000000000000000000000000000000000081525081526020016040518060400160405280600681526020017f75325675544a000000000000000000000000000000000000000000000000000081525081526020016040518060400160405280600681526020017f4f6c4631686d000000000000000000000000000000000000000000000000000081525081526020016040518060400160405280600681526020017f363841355131000000000000000000000000000000000000000000000000000081525081526020016040518060400160405280600681526020017f495637746678000000000000000000000000000000000000000000000000000081525081526020016040518060400160405280600681526020017f6c6e33757559000000000000000000000000000000000000000000000000000081525081526020016040518060400160405280600681526020017f43445a394674000000000000000000000000000000000000000000000000000081525081526020016040518060400160405280600681526020017f6b65484d4375000000000000000000000000000000000000000000000000000081525081526020016040518060400160405280600681526020017f4c3430367436000000000000000000000000000000000000000000000000000081525081526020016040518060400160405280600681526020017f655752504a70000000000000000000000000000000000000000000000000000081525081526020016040518060400160405280600681526020017f455574674138000000000000000000000000000000000000000000000000000081525081526020016040518060400160405280600681526020017f5156486f4947000000000000000000000000000000000000000000000000000081525081526020016040518060400160405280600681526020017f507a4f6a3850000000000000000000000000000000000000000000000000000081525081526020016040518060400160405280600681526020017f7435556b4450000000000000000000000000000000000000000000000000000081525081526020016040518060400160405280600681526020017f7555527a3963000000000000000000000000000000000000000000000000000081525081526020016040518060400160405280600681526020017f723973303935000000000000000000000000000000000000000000000000000081525081526020016040518060400160405280600681526020017f516468786d49000000000000000000000000000000000000000000000000000081525081526020016040518060400160405280600681526020017f584f6833436d000000000000000000000000000000000000000000000000000081525081526020016040518060400160405280600681526020017f5756685a3265000000000000000000000000000000000000000000000000000081525081526020016040518060400160405280600681526020017f324539734a39000000000000000000000000000000000000000000000000000081525081526020016040518060400160405280600681526020017f67545461764b000000000000000000000000000000000000000000000000000081525081526020016040518060400160405280600681526020017f6c5731516849000000000000000000000000000000000000000000000000000081525081526020016040518060400160405280600681526020017f714435545779000000000000000000000000000000000000000000000000000081525081526020016040518060400160405280600681526020017f6a5332714757000000000000000000000000000000000000000000000000000081525081526020016040518060400160405280600681526020017f7857786c617a000000000000000000000000000000000000000000000000000081525081526020016040518060400160405280600681526020017f63524358616f000000000000000000000000000000000000000000000000000081525081526020016040518060400160405280600681526020017f4a387a38704f000000000000000000000000000000000000000000000000000081525081526020016040518060400160405280600681526020017f756662334166000000000000000000000000000000000000000000000000000081525081526020016040518060400160405280600681526020017f776136704b66000000000000000000000000000000000000000000000000000081525081526020016040518060400160405280600681526020017f3659554b4e76000000000000000000000000000000000000000000000000000081525081526020016040518060400160405280600681526020017f765a45476d71000000000000000000000000000000000000000000000000000081525081526020016040518060400160405280600681526020017f664463386f72000000000000000000000000000000000000000000000000000081525081526020016040518060400160405280600681526020017f633575336270000000000000000000000000000000000000000000000000000081525081526020016040518060400160405280600681526020017f3677414a7750000000000000000000000000000000000000000000000000000081525081526020016040518060400160405280600681526020017f6c4f6d6f4247000000000000000000000000000000000000000000000000000081525081526020016040518060400160405280600681526020017f674263434a76000000000000000000000000000000000000000000000000000081525081526020016040518060400160405280600681526020017f6d4f3858756f000000000000000000000000000000000000000000000000000081525081526020016040518060400160405280600681526020017f476b7730314d000000000000000000000000000000000000000000000000000081525081526020016040518060400160405280600681526020017f467a706b5569000000000000000000000000000000000000000000000000000081525081526020016040518060400160405280600681526020017f5139516c4562000000000000000000000000000000000000000000000000000081525081526020016040518060400160405280600681526020017f555054436c61000000000000000000000000000000000000000000000000000081525081526020016040518060400160405280600681526020017f6d7a6b316d34000000000000000000000000000000000000000000000000000081525081526020016040518060400160405280600681526020017f4a4f3945786c000000000000000000000000000000000000000000000000000081525081526020016040518060400160405280600681526020017f39706c625175000000000000000000000000000000000000000000000000000081525081526020016040518060400160405280600681526020017f47626555476a000000000000000000000000000000000000000000000000000081525081526020016040518060400160405280600681526020017f70785a303147000000000000000000000000000000000000000000000000000081525081526020016040518060400160405280600681526020017f417a51424d64000000000000000000000000000000000000000000000000000081525081526020016040518060400160405280600681526020017f4d6d3838674b000000000000000000000000000000000000000000000000000081525081526020016040518060400160405280600681526020017f346459697853000000000000000000000000000000000000000000000000000081525081526020016040518060400160405280600681526020017f574e764d7049000000000000000000000000000000000000000000000000000081525081526020016040518060400160405280600681526020017f4c75436e4c36000000000000000000000000000000000000000000000000000081525081526020016040518060400160405280600681526020017f355a65566d4f000000000000000000000000000000000000000000000000000081525081526020016040518060400160405280600681526020017f375047774e37000000000000000000000000000000000000000000000000000081525081526020016040518060400160405280600681526020017f303552327467000000000000000000000000000000000000000000000000000081525081526020016040518060400160405280600681526020017f686343326358000000000000000000000000000000000000000000000000000081525081526020016040518060400160405280600681526020017f48384a6f3469000000000000000000000000000000000000000000000000000081525081526020016040518060400160405280600681526020017f68724d48645a000000000000000000000000000000000000000000000000000081525081526020016040518060400160405280600681526020017f386c48375575000000000000000000000000000000000000000000000000000081525081526020016040518060400160405280600681526020017f4569526c6e49000000000000000000000000000000000000000000000000000081525081526020016040518060400160405280600681526020017f3644786c6866000000000000000000000000000000000000000000000000000081525081526020016040518060400160405280600681526020017f7832356e3646000000000000000000000000000000000000000000000000000081525081526020016040518060400160405280600681526020017f6c5878543046000000000000000000000000000000000000000000000000000081525081526020016040518060400160405280600681526020017f597069735a73000000000000000000000000000000000000000000000000000081525081526020016040518060400160405280600681526020017f376e6942724d000000000000000000000000000000000000000000000000000081525081526020016040518060400160405280600681526020017f774c63474c71000000000000000000000000000000000000000000000000000081525081526020016040518060400160405280600681526020017f514643485349000000000000000000000000000000000000000000000000000081525081526020016040518060400160405280600681526020017f746b436f4959000000000000000000000000000000000000000000000000000081525081526020016040518060400160405280600681526020017f4a73514e6269000000000000000000000000000000000000000000000000000081525081526020016040518060400160405280600681526020017f4d57396c4d35000000000000000000000000000000000000000000000000000081525081526020016040518060400160405280600681526020017f444e7968524e000000000000000000000000000000000000000000000000000081525081526020016040518060400160405280600681526020017f576e7977736d000000000000000000000000000000000000000000000000000081525081526020016040518060400160405280600681526020017f42767a464a4a000000000000000000000000000000000000000000000000000081525081526020016040518060400160405280600681526020017f7548496f556d000000000000000000000000000000000000000000000000000081525081526020016040518060400160405280600681526020017f4a38686c3577000000000000000000000000000000000000000000000000000081525081526020016040518060400160405280600681526020017f63525038665a000000000000000000000000000000000000000000000000000081525081526020016040518060400160405280600681526020017f366f554f6149000000000000000000000000000000000000000000000000000081525081526020016040518060400160405280600681526020017f44356654344b000000000000000000000000000000000000000000000000000081525081526020016040518060400160405280600681526020017f376f79654838000000000000000000000000000000000000000000000000000081525081526020016040518060400160405280600681526020017f434c4d536e6b000000000000000000000000000000000000000000000000000081525081526020016040518060400160405280600681526020017f746861436971000000000000000000000000000000000000000000000000000081525081526020016040518060400160405280600681526020017f4f6667317976000000000000000000000000000000000000000000000000000081525081526020016040518060400160405280600681526020017f504945455848000000000000000000000000000000000000000000000000000081525081526020016040518060400160405280600681526020017f5a3067456734000000000000000000000000000000000000000000000000000081525081526020016040518060400160405280600681526020017f766a37594450000000000000000000000000000000000000000000000000000081525081526020016040518060400160405280600681526020017f666136355832000000000000000000000000000000000000000000000000000081525081526020016040518060400160405280600681526020017f554f574b6d50000000000000000000000000000000000000000000000000000081525081526020016040518060400160405280600681526020017f415175577070000000000000000000000000000000000000000000000000000081525081526020016040518060400160405280600681526020017f4f695a465933000000000000000000000000000000000000000000000000000081525081526020016040518060400160405280600681526020017f7335556b556f000000000000000000000000000000000000000000000000000081525081526020016040518060400160405280600681526020017f743271795371000000000000000000000000000000000000000000000000000081525081526020016040518060400160405280600681526020017f594f35664e35000000000000000000000000000000000000000000000000000081525081526020016040518060400160405280600681526020017f7054737a7971000000000000000000000000000000000000000000000000000081525081526020016040518060400160405280600681526020017f70436a723546000000000000000000000000000000000000000000000000000081525081526020016040518060400160405280600681526020017f4a6832317041000000000000000000000000000000000000000000000000000081525081526020016040518060400160405280600681526020017f786c47773566000000000000000000000000000000000000000000000000000081525081526020016040518060400160405280600681526020017f703376617542000000000000000000000000000000000000000000000000000081525081526020016040518060400160405280600681526020017f7344564f3770000000000000000000000000000000000000000000000000000081525081526020016040518060400160405280600681526020017f656748737337000000000000000000000000000000000000000000000000000081525081526020016040518060400160405280600681526020017f615444567a64000000000000000000000000000000000000000000000000000081525081526020016040518060400160405280600681526020017f393841704652000000000000000000000000000000000000000000000000000081525081526020016040518060400160405280600681526020017f796179363463000000000000000000000000000000000000000000000000000081525081526020016040518060400160405280600681526020017f514755435347000000000000000000000000000000000000000000000000000081525081526020016040518060400160405280600681526020017f516368764d7a000000000000000000000000000000000000000000000000000081525081526020016040518060400160405280600681526020017f535669643373000000000000000000000000000000000000000000000000000081525081526020016040518060400160405280600681526020017f4b6841754753000000000000000000000000000000000000000000000000000081525081526020016040518060400160405280600681526020017f4d4632704977000000000000000000000000000000000000000000000000000081525081526020016040518060400160405280600681526020017f6f674e6b7443000000000000000000000000000000000000000000000000000081525081526020016040518060400160405280600681526020017f564e56784338000000000000000000000000000000000000000000000000000081525081526020016040518060400160405280600681526020017f6e514a767552000000000000000000000000000000000000000000000000000081525081526020016040518060400160405280600681526020017f337a47513979000000000000000000000000000000000000000000000000000081525081526020016040518060400160405280600681526020017f58486b32526c000000000000000000000000000000000000000000000000000081525081526020016040518060400160405280600681526020017f6e4576327573000000000000000000000000000000000000000000000000000081525081526020016040518060400160405280600681526020017f5358376a3261000000000000000000000000000000000000000000000000000081525081526020016040518060400160405280600681526020017f4b6546766838000000000000000000000000000000000000000000000000000081525081526020016040518060400160405280600681526020017f7645784c475a000000000000000000000000000000000000000000000000000081525081526020016040518060400160405280600681526020017f6548666e7441000000000000000000000000000000000000000000000000000081525081526020016040518060400160405280600681526020017f787a376d6d46000000000000000000000000000000000000000000000000000081525081526020016040518060400160405280600681526020017f5a7957693964000000000000000000000000000000000000000000000000000081525081526020016040518060400160405280600681526020017f4d6675774870000000000000000000000000000000000000000000000000000081525081526020016040518060400160405280600681526020017f447952596159000000000000000000000000000000000000000000000000000081525081526020016040518060400160405280600681526020017f32374e763846000000000000000000000000000000000000000000000000000081525081526020016040518060400160405280600681526020017f7a77766d6974000000000000000000000000000000000000000000000000000081525081526020016040518060400160405280600681526020017f614b79363557000000000000000000000000000000000000000000000000000081525081526020016040518060400160405280600681526020017f6a4b7a583162000000000000000000000000000000000000000000000000000081525081526020016040518060400160405280600681526020017f43545375424c000000000000000000000000000000000000000000000000000081525081526020016040518060400160405280600681526020017f4950526a5356000000000000000000000000000000000000000000000000000081525081526020016040518060400160405280600681526020017f366555317661000000000000000000000000000000000000000000000000000081525081526020016040518060400160405280600681526020017f597958374651000000000000000000000000000000000000000000000000000081525081526020016040518060400160405280600681526020017f54624875366d000000000000000000000000000000000000000000000000000081525081526020016040518060400160405280600681526020017f446d35454a76000000000000000000000000000000000000000000000000000081525081526020016040518060400160405280600681526020017f4335365a7058000000000000000000000000000000000000000000000000000081525081526020016040518060400160405280600681526020017f794544385478000000000000000000000000000000000000000000000000000081525081526020016040518060400160405280600681526020017f656a42364f62000000000000000000000000000000000000000000000000000081525081526020016040518060400160405280600681526020017f596949753844000000000000000000000000000000000000000000000000000081525081526020016040518060400160405280600681526020017f69546a38316f000000000000000000000000000000000000000000000000000081525081526020016040518060400160405280600681526020017f44695542426d000000000000000000000000000000000000000000000000000081525081526020016040518060400160405280600681526020017f5935756b5543000000000000000000000000000000000000000000000000000081525081526020016040518060400160405280600681526020017f5144646a5633000000000000000000000000000000000000000000000000000081525081526020016040518060400160405280600681526020017f55535248364f000000000000000000000000000000000000000000000000000081525081526020016040518060400160405280600681526020017f6348674a4b56000000000000000000000000000000000000000000000000000081525081526020016040518060400160405280600681526020017f5a494d306942000000000000000000000000000000000000000000000000000081525081526020016040518060400160405280600681526020017f5a346a396551000000000000000000000000000000000000000000000000000081525081526020016040518060400160405280600681526020017f655168585a78000000000000000000000000000000000000000000000000000081525081526020016040518060400160405280600681526020017f594f54324d74000000000000000000000000000000000000000000000000000081525081526020016040518060400160405280600681526020017f30396d584836000000000000000000000000000000000000000000000000000081525081526020016040518060400160405280600681526020017f32744c436634000000000000000000000000000000000000000000000000000081525081526020016040518060400160405280600681526020017f4b416652564d000000000000000000000000000000000000000000000000000081525081526020016040518060400160405280600681526020017f4c6278754331000000000000000000000000000000000000000000000000000081525081526020016040518060400160405280600681526020017f6e5849774f46000000000000000000000000000000000000000000000000000081525081526020016040518060400160405280600681526020017f633175553054000000000000000000000000000000000000000000000000000081525081526020016040518060400160405280600681526020017f304b34665a46000000000000000000000000000000000000000000000000000081525081526020016040518060400160405280600681526020017f484e3431614e000000000000000000000000000000000000000000000000000081525081526020016040518060400160405280600681526020017f4545674a5863000000000000000000000000000000000000000000000000000081525081526020016040518060400160405280600681526020017f4a3375763256000000000000000000000000000000000000000000000000000081525081526020016040518060400160405280600681526020017f663035523756000000000000000000000000000000000000000000000000000081525081526020016040518060400160405280600681526020017f6f3263393735000000000000000000000000000000000000000000000000000081525081526020016040518060400160405280600681526020017f4d316e65796e000000000000000000000000000000000000000000000000000081525081526020016040518060400160405280600681526020017f4b6571704331000000000000000000000000000000000000000000000000000081525081526020016040518060400160405280600681526020017f61366d58425a000000000000000000000000000000000000000000000000000081525081526020016040518060400160405280600681526020017f47326a494174000000000000000000000000000000000000000000000000000081525081526020016040518060400160405280600681526020017f436a67656d4e000000000000000000000000000000000000000000000000000081525081526020016040518060400160405280600681526020017f43526a314a75000000000000000000000000000000000000000000000000000081525081526020016040518060400160405280600681526020017f7349306a5a4c000000000000000000000000000000000000000000000000000081525081526020016040518060400160405280600681526020017f4a6957724a6e000000000000000000000000000000000000000000000000000081525081526020016040518060400160405280600681526020017f644445684b38000000000000000000000000000000000000000000000000000081525081526020016040518060400160405280600681526020017f645531583744000000000000000000000000000000000000000000000000000081525081526020016040518060400160405280600681526020017f397577775875000000000000000000000000000000000000000000000000000081525081526020016040518060400160405280600681526020017f677732676272000000000000000000000000000000000000000000000000000081525081526020016040518060400160405280600681526020017f79645344614a000000000000000000000000000000000000000000000000000081525081526020016040518060400160405280600681526020017f6a356c444b75000000000000000000000000000000000000000000000000000081525081526020016040518060400160405280600681526020017f5a4f396a3666000000000000000000000000000000000000000000000000000081525081526020016040518060400160405280600681526020017f443050553571000000000000000000000000000000000000000000000000000081525081526020016040518060400160405280600681526020017f484154486f4e000000000000000000000000000000000000000000000000000081525081526020016040518060400160405280600681526020017f53703433586b00000000000000000000000000000000000000000000000000008152508152506008906103846200cf8d9291906200d367565b503480156200cf9b57600080fd5b506040516200f58d3803806200f58d83398181016040528101906200cfc191906200d551565b6200cfe16200cfd56200d29b60201b60201c565b6200d2a360201b60201c565b81600360006101000a81548173ffffffffffffffffffffffffffffffffffffffff021916908373ffffffffffffffffffffffffffffffffffffffff16021790555060405180604001604052808273ffffffffffffffffffffffffffffffffffffffff1681526020018273ffffffffffffffffffffffffffffffffffffffff1663b6d200de7fa9214cc96615e0085d3bb077758db69497dc2dce3b2b1e97bc93c3d18d83efd36040518263ffffffff1660e01b81526004016200d0a491906200d5a3565b60206040518083038186803b1580156200d0bd57600080fd5b505afa1580156200d0d2573d6000803e3d6000fd5b505050506040513d601f19601f820116820180604052508101906200d0f891906200d525565b73ffffffffffffffffffffffffffffffffffffffff16815250600160008201518160000160006101000a81548173ffffffffffffffffffffffffffffffffffffffff021916908373ffffffffffffffffffffffffffffffffffffffff16021790555060208201518160010160006101000a81548173ffffffffffffffffffffffffffffffffffffffff021916908373ffffffffffffffffffffffffffffffffffffffff1602179055509050508073ffffffffffffffffffffffffffffffffffffffff1663b6d200de7fa9214cc96615e0085d3bb077758db69497dc2dce3b2b1e97bc93c3d18d83efd36040518263ffffffff1660e01b81526004016200d1ff91906200d5a3565b60206040518083038186803b1580156200d21857600080fd5b505afa1580156200d22d573d6000803e3d6000fd5b505050506040513d601f19601f820116820180604052508101906200d25391906200d525565b600460006101000a81548173ffffffffffffffffffffffffffffffffffffffff021916908373ffffffffffffffffffffffffffffffffffffffff16021790555050506200d6ed565b600033905090565b60008060009054906101000a900473ffffffffffffffffffffffffffffffffffffffff169050816000806101000a81548173ffffffffffffffffffffffffffffffffffffffff021916908373ffffffffffffffffffffffffffffffffffffffff1602179055508173ffffffffffffffffffffffffffffffffffffffff168173ffffffffffffffffffffffffffffffffffffffff167f8be0079c531659141344cd1fd0a4f28419497f9722a3daafe3b4186f6b6457e060405160405180910390a35050565b8261038481019282156200d3af579160200282015b828111156200d3ae5782518290805190602001906200d39d9291906200d3c2565b50916020019190600101906200d37c565b5b5090506200d3be91906200d453565b5090565b8280546200d3d0906200d63a565b90600052602060002090601f0160209004810192826200d3f457600085556200d440565b82601f106200d40f57805160ff19168380011785556200d440565b828001600101855582156200d440579182015b828111156200d43f5782518255916020019190600101906200d422565b5b5090506200d44f91906200d47b565b5090565b5b808211156200d47757600081816200d46d91906200d49a565b506001016200d454565b5090565b5b808211156200d4965760008160009055506001016200d47c565b5090565b5080546200d4a8906200d63a565b6000825580601f106200d4bc57506200d4dd565b601f0160209004906000526020600020908101906200d4dc91906200d47b565b5b50565b6000815190506200d4f1816200d69f565b92915050565b6000815190506200d508816200d6b9565b92915050565b6000815190506200d51f816200d6d3565b92915050565b6000602082840312156200d53857600080fd5b60006200d548848285016200d4e0565b91505092915050565b600080604083850312156200d56557600080fd5b60006200d575858286016200d4f7565b92505060206200d588858286016200d50e565b9150509250929050565b6200d59d816200d5d4565b82525050565b60006020820190506200d5ba60008301846200d592565b92915050565b60006200d5cd826200d61a565b9050919050565b6000819050919050565b60006200d5eb826200d5c0565b9050919050565b60006200d5ff826200d5c0565b9050919050565b60006200d613826200d5c0565b9050919050565b600073ffffffffffffffffffffffffffffffffffffffff82169050919050565b600060028204905060018216806200d65357607f821691505b602082108114156200d66a576200d6696200d670565b5b50919050565b7f4e487b7100000000000000000000000000000000000000000000000000000000600052602260045260246000fd5b6200d6aa816200d5de565b81146200d6b657600080fd5b50565b6200d6c4816200d5f2565b81146200d6d057600080fd5b50565b6200d6de816200d606565b81146200d6ea57600080fd5b50565b611e90806200d6fd6000396000f3fe608060405234801561001057600080fd5b50600436106101005760003560e01c80638da5cb5b11610097578063c4f7463111610066578063c4f7463114610271578063d3112b2e146102a1578063e86613a7146102c0578063f2fde38b146102f057610100565b80638da5cb5b146101d7578063acdce273146101f5578063b1c38b0114610225578063bf721dd11461025557610100565b80633519a2f8116100d35780633519a2f81461017957806345f02b0a146101955780635b528830146101b1578063715018a6146101cd57610100565b80631054df8c1461010557806310941a341461012357806312bb025f1461013f578063155dd5ee1461015d575b600080fd5b61010d61030c565b60405161011a91906119b6565b60405180910390f35b61013d600480360381019061013891906115e9565b610332565b005b610147610507565b6040516101549190611a14565b60405180910390f35b6101776004803603810190610172919061163d565b61052d565b005b610193600480360381019061018e919061163d565b61065c565b005b6101af60048036038101906101aa91906114d9565b61078d565b005b6101cb60048036038101906101c69190611502565b6107d1565b005b6101d561088b565b005b6101df610913565b6040516101ec91906118fe565b60405180910390f35b61020f600480360381019061020a91906114d9565b61093c565b60405161021c9190611979565b60405180910390f35b61023f600480360381019061023a9190611567565b61095c565b60405161024c9190611979565b60405180910390f35b61026f600480360381019061026a91906114d9565b610992565b005b61028b600480360381019061028691906114d9565b610a4b565b6040516102989190611994565b60405180910390f35b6102a9610aeb565b6040516102b7929190611ac7565b60405180910390f35b6102da60048036038101906102d5919061163d565b610b3d565b6040516102e79190611af0565b60405180910390f35b61030a600480360381019061030591906114d9565b610be1565b005b600460009054906101000a900473ffffffffffffffffffffffffffffffffffffffff1681565b6000151560068360405161034691906118e7565b908152602001604051809103902060009054906101000a900460ff161515146103a4576040517f08c379a000000000000000000000000000000000000000000000000000000000815260040161039b90611b12565b60405180910390fd5b60001515600760008373ffffffffffffffffffffffffffffffffffffffff1673ffffffffffffffffffffffffffffffffffffffff16815260200190815260200160002060009054906101000a900460ff16151514610437576040517f08c379a000000000000000000000000000000000000000000000000000000000815260040161042e90611b72565b60405180910390fd5b81600560008373ffffffffffffffffffffffffffffffffffffffff1673ffffffffffffffffffffffffffffffffffffffff168152602001908152602001600020908051906020019061048a929190611312565b50600160068360405161049d91906118e7565b908152602001604051809103902060006101000a81548160ff02191690831515021790555061050381600360009054906101000a900473ffffffffffffffffffffffffffffffffffffffff1666291e8f1dca0bda6001610cd9909392919063ffffffff16565b5050565b600360009054906101000a900473ffffffffffffffffffffffffffffffffffffffff1681565b610535610ea8565b73ffffffffffffffffffffffffffffffffffffffff16610553610913565b73ffffffffffffffffffffffffffffffffffffffff16146105a9576040517f08c379a00000000000000000000000000000000000000000000000000000000081526004016105a090611b52565b60405180910390fd5b600360009054906101000a900473ffffffffffffffffffffffffffffffffffffffff1673ffffffffffffffffffffffffffffffffffffffff1663a9059cbb33836040518363ffffffff1660e01b8152600401610606929190611950565b602060405180830381600087803b15801561062057600080fd5b505af1158015610634573d6000803e3d6000fd5b505050506040513d601f19601f82011682018060405250810190610658919061153e565b5050565b610664610ea8565b73ffffffffffffffffffffffffffffffffffffffff16610682610913565b73ffffffffffffffffffffffffffffffffffffffff16146106d8576040517f08c379a00000000000000000000000000000000000000000000000000000000081526004016106cf90611b52565b60405180910390fd5b600360009054906101000a900473ffffffffffffffffffffffffffffffffffffffff1673ffffffffffffffffffffffffffffffffffffffff166323b872dd3330846040518463ffffffff1660e01b815260040161073793929190611919565b602060405180830381600087803b15801561075157600080fd5b505af1158015610765573d6000803e3d6000fd5b505050506040513d601f19601f82011682018060405250810190610789919061153e565b5050565b6107ce81600360009054906101000a900473ffffffffffffffffffffffffffffffffffffffff1666291e8f1dca0bda6001610cd9909392919063ffffffff16565b50565b6107d9610ea8565b73ffffffffffffffffffffffffffffffffffffffff166107f7610913565b73ffffffffffffffffffffffffffffffffffffffff161461084d576040517f08c379a000000000000000000000000000000000000000000000000000000000815260040161084490611b52565b60405180910390fd5b61088782600360009054906101000a900473ffffffffffffffffffffffffffffffffffffffff16836001610eb0909392919063ffffffff16565b5050565b610893610ea8565b73ffffffffffffffffffffffffffffffffffffffff166108b1610913565b73ffffffffffffffffffffffffffffffffffffffff1614610907576040517f08c379a00000000000000000000000000000000000000000000000000000000081526004016108fe90611b52565b60405180910390fd5b610911600061107f565b565b60008060009054906101000a900473ffffffffffffffffffffffffffffffffffffffff16905090565b60076020528060005260406000206000915054906101000a900460ff1681565b6006818051602081018201805184825260208301602085012081835280955050505050506000915054906101000a900460ff1681565b61099a610ea8565b73ffffffffffffffffffffffffffffffffffffffff166109b8610913565b73ffffffffffffffffffffffffffffffffffffffff1614610a0e576040517f08c379a0000000000000000000000000000000000000000000000000000000008152600401610a0590611b52565b60405180910390fd5b610a483082600360009054906101000a900473ffffffffffffffffffffffffffffffffffffffff166001611143909392919063ffffffff16565b50565b60056020528060005260406000206000915090508054610a6a90611d5d565b80601f0160208091040260200160405190810160405280929190818152602001828054610a9690611d5d565b8015610ae35780601f10610ab857610100808354040283529160200191610ae3565b820191906000526020600020905b815481529060010190602001808311610ac657829003601f168201915b505050505081565b60018060000160009054906101000a900473ffffffffffffffffffffffffffffffffffffffff16908060010160009054906101000a900473ffffffffffffffffffffffffffffffffffffffff16905082565b6008816103848110610b4e57600080fd5b016000915090508054610b6090611d5d565b80601f0160208091040260200160405190810160405280929190818152602001828054610b8c90611d5d565b8015610bd95780601f10610bae57610100808354040283529160200191610bd9565b820191906000526020600020905b815481529060010190602001808311610bbc57829003601f168201915b505050505081565b610be9610ea8565b73ffffffffffffffffffffffffffffffffffffffff16610c07610913565b73ffffffffffffffffffffffffffffffffffffffff1614610c5d576040517f08c379a0000000000000000000000000000000000000000000000000000000008152600401610c5490611b52565b60405180910390fd5b600073ffffffffffffffffffffffffffffffffffffffff168173ffffffffffffffffffffffffffffffffffffffff161415610ccd576040517f08c379a0000000000000000000000000000000000000000000000000000000008152600401610cc490611b32565b60405180910390fd5b610cd68161107f565b50565b8360000160009054906101000a900473ffffffffffffffffffffffffffffffffffffffff1673ffffffffffffffffffffffffffffffffffffffff166339255d5b8560010160009054906101000a900473ffffffffffffffffffffffffffffffffffffffff166362fc305e60e01b858786600067ffffffffffffffff811115610d8a577f4e487b7100000000000000000000000000000000000000000000000000000000600052604160045260246000fd5b6040519080825280601f01601f191660200182016040528015610dbc5781602001600182028036833780820191505090505b50604051602401610dd09493929190611a7b565b604051602081830303815290604052907bffffffffffffffffffffffffffffffffffffffffffffffffffffffff19166020820180517bffffffffffffffffffffffffffffffffffffffffffffffffffffffff83818316178352505050506040518363ffffffff1660e01b8152600401610e4a9291906119d1565b600060405180830381600087803b158015610e6457600080fd5b505af1158015610e78573d6000803e3d6000fd5b505050506040513d6000823e3d601f19601f82011682018060405250810190610ea191906115a8565b5050505050565b600033905090565b8360000160009054906101000a900473ffffffffffffffffffffffffffffffffffffffff1673ffffffffffffffffffffffffffffffffffffffff166339255d5b8560010160009054906101000a900473ffffffffffffffffffffffffffffffffffffffff166350209a6260e01b858786600067ffffffffffffffff811115610f61577f4e487b7100000000000000000000000000000000000000000000000000000000600052604160045260246000fd5b6040519080825280601f01601f191660200182016040528015610f935781602001600182028036833780820191505090505b50604051602401610fa79493929190611a7b565b604051602081830303815290604052907bffffffffffffffffffffffffffffffffffffffffffffffffffffffff19166020820180517bffffffffffffffffffffffffffffffffffffffffffffffffffffffff83818316178352505050506040518363ffffffff1660e01b81526004016110219291906119d1565b600060405180830381600087803b15801561103b57600080fd5b505af115801561104f573d6000803e3d6000fd5b505050506040513d6000823e3d601f19601f8201168201806040525081019061107891906115a8565b5050505050565b60008060009054906101000a900473ffffffffffffffffffffffffffffffffffffffff169050816000806101000a81548173ffffffffffffffffffffffffffffffffffffffff021916908373ffffffffffffffffffffffffffffffffffffffff1602179055508173ffffffffffffffffffffffffffffffffffffffff168173ffffffffffffffffffffffffffffffffffffffff167f8be0079c531659141344cd1fd0a4f28419497f9722a3daafe3b4186f6b6457e060405160405180910390a35050565b8360000160009054906101000a900473ffffffffffffffffffffffffffffffffffffffff1673ffffffffffffffffffffffffffffffffffffffff166339255d5b8560010160009054906101000a900473ffffffffffffffffffffffffffffffffffffffff1663b4b333c660e01b848787600067ffffffffffffffff8111156111f4577f4e487b7100000000000000000000000000000000000000000000000000000000600052604160045260246000fd5b6040519080825280601f01601f1916602001820160405280156112265781602001600182028036833780820191505090505b5060405160240161123a9493929190611a2f565b604051602081830303815290604052907bffffffffffffffffffffffffffffffffffffffffffffffffffffffff19166020820180517bffffffffffffffffffffffffffffffffffffffffffffffffffffffff83818316178352505050506040518363ffffffff1660e01b81526004016112b49291906119d1565b600060405180830381600087803b1580156112ce57600080fd5b505af11580156112e2573d6000803e3d6000fd5b505050506040513d6000823e3d601f19601f8201168201806040525081019061130b91906115a8565b5050505050565b82805461131e90611d5d565b90600052602060002090601f0160209004810192826113405760008555611387565b82601f1061135957805160ff1916838001178555611387565b82800160010185558215611387579182015b8281111561138657825182559160200191906001019061136b565b5b5090506113949190611398565b5090565b5b808211156113b1576000816000905550600101611399565b5090565b60006113c86113c384611bc3565b611b92565b9050828152602081018484840111156113e057600080fd5b6113eb848285611d1b565b509392505050565b600061140661140184611bc3565b611b92565b90508281526020810184848401111561141e57600080fd5b611429848285611d2a565b509392505050565b60008135905061144081611dfe565b92915050565b60008151905061145581611e15565b92915050565b600082601f83011261146c57600080fd5b813561147c8482602086016113b5565b91505092915050565b600082601f83011261149657600080fd5b81516114a68482602086016113f3565b91505092915050565b6000813590506114be81611e2c565b92915050565b6000813590506114d381611e43565b92915050565b6000602082840312156114eb57600080fd5b60006114f984828501611431565b91505092915050565b6000806040838503121561151557600080fd5b600061152385828601611431565b9250506020611534858286016114af565b9150509250929050565b60006020828403121561155057600080fd5b600061155e84828501611446565b91505092915050565b60006020828403121561157957600080fd5b600082013567ffffffffffffffff81111561159357600080fd5b61159f8482850161145b565b91505092915050565b6000602082840312156115ba57600080fd5b600082015167ffffffffffffffff8111156115d457600080fd5b6115e084828501611485565b91505092915050565b600080604083850312156115fc57600080fd5b600083013567ffffffffffffffff81111561161657600080fd5b6116228582860161145b565b925050602061163385828601611431565b9150509250929050565b60006020828403121561164f57600080fd5b600061165d848285016114c4565b91505092915050565b61166f81611c36565b82525050565b61167e81611c48565b82525050565b600061168f82611bf3565b6116998185611c09565b93506116a9818560208601611d2a565b6116b281611ded565b840191505092915050565b60006116c882611bf3565b6116d28185611c1a565b93506116e2818560208601611d2a565b80840191505092915050565b6116f781611c8b565b82525050565b61170681611caf565b82525050565b61171581611cd3565b82525050565b61172481611cf7565b82525050565b61173381611c54565b82525050565b600061174482611bfe565b61174e8185611c25565b935061175e818560208601611d2a565b61176781611ded565b840191505092915050565b600061177f601a83611c25565b91507f636f64652068617320616c7265616479206265656e20757365640000000000006000830152602082019050919050565b60006117bf602683611c25565b91507f4f776e61626c653a206e6577206f776e657220697320746865207a65726f206160008301527f64647265737300000000000000000000000000000000000000000000000000006020830152604082019050919050565b6000611825600283611c09565b91507f30780000000000000000000000000000000000000000000000000000000000006000830152602082019050919050565b6000611865602083611c25565b91507f4f776e61626c653a2063616c6c6572206973206e6f7420746865206f776e65726000830152602082019050919050565b60006118a5601d83611c25565b91507f616464726573732068617320616c7265616479206265656e20757365640000006000830152602082019050919050565b6118e181611c81565b82525050565b60006118f382846116bd565b915081905092915050565b60006020820190506119136000830184611666565b92915050565b600060608201905061192e6000830186611666565b61193b6020830185611666565b61194860408301846118d8565b949350505050565b60006040820190506119656000830185611666565b61197260208301846118d8565b9392505050565b600060208201905061198e6000830184611675565b92915050565b600060208201905081810360008301526119ae8184611684565b905092915050565b60006020820190506119cb60008301846116ee565b92915050565b60006060820190506119e660008301856116ee565b81810360208301526119f88184611684565b90508181036040830152611a0b81611818565b90509392505050565b6000602082019050611a2960008301846116fd565b92915050565b6000608082019050611a44600083018761170c565b611a516020830186611666565b611a5e6040830185611666565b8181036060830152611a708184611684565b905095945050505050565b6000608082019050611a90600083018761170c565b611a9d6020830186611666565b611aaa604083018561172a565b8181036060830152611abc8184611684565b905095945050505050565b6000604082019050611adc600083018561171b565b611ae960208301846116ee565b9392505050565b60006020820190508181036000830152611b0a8184611739565b905092915050565b60006020820190508181036000830152611b2b81611772565b9050919050565b60006020820190508181036000830152611b4b816117b2565b9050919050565b60006020820190508181036000830152611b6b81611858565b9050919050565b60006020820190508181036000830152611b8b81611898565b9050919050565b6000604051905081810181811067ffffffffffffffff82111715611bb957611bb8611dbe565b5b8060405250919050565b600067ffffffffffffffff821115611bde57611bdd611dbe565b5b601f19601f8301169050602081019050919050565b600081519050919050565b600081519050919050565b600082825260208201905092915050565b600081905092915050565b600082825260208201905092915050565b6000611c4182611c61565b9050919050565b60008115159050919050565b600081600b0b9050919050565b600073ffffffffffffffffffffffffffffffffffffffff82169050919050565b6000819050919050565b6000611c9682611c9d565b9050919050565b6000611ca882611c61565b9050919050565b6000611cba82611cc1565b9050919050565b6000611ccc82611c61565b9050919050565b6000611cde82611ce5565b9050919050565b6000611cf082611c61565b9050919050565b6000611d0282611d09565b9050919050565b6000611d1482611c61565b9050919050565b82818337600083830152505050565b60005b83811015611d48578082015181840152602081019050611d2d565b83811115611d57576000848401525b50505050565b60006002820490506001821680611d7557607f821691505b60208210811415611d8957611d88611d8f565b5b50919050565b7f4e487b7100000000000000000000000000000000000000000000000000000000600052602260045260246000fd5b7f4e487b7100000000000000000000000000000000000000000000000000000000600052604160045260246000fd5b6000601f19601f8301169050919050565b611e0781611c36565b8114611e1257600080fd5b50565b611e1e81611c48565b8114611e2957600080fd5b50565b611e3581611c54565b8114611e4057600080fd5b50565b611e4c81611c81565b8114611e5757600080fd5b5056fea26469706673582212202f11b2edb92292e809519b181d4b24a93e5be7ad5fff274203e8ebcdbca4877b64736f6c63430008000033",
  "devdoc": {
    "kind": "dev",
    "methods": {
      "owner()": {
        "details": "Returns the address of the current owner."
      },
      "renounceOwnership()": {
        "details": "Leaves the contract without owner. It will not be possible to call `onlyOwner` functions anymore. Can only be called by the current owner. NOTE: Renouncing ownership will leave the contract without an owner, thereby removing any functionality that is only available to the owner."
      },
      "transferOwnership(address)": {
        "details": "Transfers ownership of the contract to a new account (`newOwner`). Can only be called by the current owner."
      }
    },
    "version": 1
  },
  "userdoc": {
    "kind": "user",
    "methods": {},
    "version": 1
  },
  "storageLayout": {
    "storage": [
      {
        "astId": 7,
        "contract": "contracts/ETHAmsterdamFaucet.sol:ETHAmsterdamFaucet",
        "label": "_owner",
        "offset": 0,
        "slot": "0",
        "type": "t_address"
      },
      {
        "astId": 3297,
        "contract": "contracts/ETHAmsterdamFaucet.sol:ETHAmsterdamFaucet",
        "label": "cfaV1",
        "offset": 0,
        "slot": "1",
        "type": "t_struct(InitData)378_storage"
      },
      {
        "astId": 3300,
        "contract": "contracts/ETHAmsterdamFaucet.sol:ETHAmsterdamFaucet",
        "label": "fDAIx",
        "offset": 0,
        "slot": "3",
        "type": "t_contract(ISuperToken)2289"
      },
      {
        "astId": 3303,
        "contract": "contracts/ETHAmsterdamFaucet.sol:ETHAmsterdamFaucet",
        "label": "cfa",
        "offset": 0,
        "slot": "4",
        "type": "t_contract(IConstantFlowAgreementV1)1396"
      },
      {
        "astId": 3353,
        "contract": "contracts/ETHAmsterdamFaucet.sol:ETHAmsterdamFaucet",
        "label": "addressToCode",
        "offset": 0,
        "slot": "5",
        "type": "t_mapping(t_address,t_bytes_storage)"
      },
      {
        "astId": 3357,
        "contract": "contracts/ETHAmsterdamFaucet.sol:ETHAmsterdamFaucet",
        "label": "usedCodes",
        "offset": 0,
        "slot": "6",
        "type": "t_mapping(t_bytes_memory_ptr,t_bool)"
      },
      {
        "astId": 3361,
        "contract": "contracts/ETHAmsterdamFaucet.sol:ETHAmsterdamFaucet",
        "label": "usedAddresses",
        "offset": 0,
        "slot": "7",
        "type": "t_mapping(t_address,t_bool)"
      },
      {
        "astId": 4399,
        "contract": "contracts/ETHAmsterdamFaucet.sol:ETHAmsterdamFaucet",
        "label": "codes",
        "offset": 0,
        "slot": "8",
        "type": "t_array(t_string_storage)900_storage"
      }
    ],
    "types": {
      "t_address": {
        "encoding": "inplace",
        "label": "address",
        "numberOfBytes": "20"
      },
      "t_array(t_string_storage)900_storage": {
        "base": "t_string_storage",
        "encoding": "inplace",
        "label": "string[900]",
        "numberOfBytes": "28800"
      },
      "t_bool": {
        "encoding": "inplace",
        "label": "bool",
        "numberOfBytes": "1"
      },
      "t_bytes_memory_ptr": {
        "encoding": "bytes",
        "label": "bytes",
        "numberOfBytes": "32"
      },
      "t_bytes_storage": {
        "encoding": "bytes",
        "label": "bytes",
        "numberOfBytes": "32"
      },
      "t_contract(IConstantFlowAgreementV1)1396": {
        "encoding": "inplace",
        "label": "contract IConstantFlowAgreementV1",
        "numberOfBytes": "20"
      },
      "t_contract(ISuperToken)2289": {
        "encoding": "inplace",
        "label": "contract ISuperToken",
        "numberOfBytes": "20"
      },
      "t_contract(ISuperfluid)2845": {
        "encoding": "inplace",
        "label": "contract ISuperfluid",
        "numberOfBytes": "20"
      },
      "t_mapping(t_address,t_bool)": {
        "encoding": "mapping",
        "key": "t_address",
        "label": "mapping(address => bool)",
        "numberOfBytes": "32",
        "value": "t_bool"
      },
      "t_mapping(t_address,t_bytes_storage)": {
        "encoding": "mapping",
        "key": "t_address",
        "label": "mapping(address => bytes)",
        "numberOfBytes": "32",
        "value": "t_bytes_storage"
      },
      "t_mapping(t_bytes_memory_ptr,t_bool)": {
        "encoding": "mapping",
        "key": "t_bytes_memory_ptr",
        "label": "mapping(bytes => bool)",
        "numberOfBytes": "32",
        "value": "t_bool"
      },
      "t_string_storage": {
        "encoding": "bytes",
        "label": "string",
        "numberOfBytes": "32"
      },
      "t_struct(InitData)378_storage": {
        "encoding": "inplace",
        "label": "struct CFAv1Library.InitData",
        "members": [
          {
            "astId": 374,
            "contract": "contracts/ETHAmsterdamFaucet.sol:ETHAmsterdamFaucet",
            "label": "host",
            "offset": 0,
            "slot": "0",
            "type": "t_contract(ISuperfluid)2845"
          },
          {
            "astId": 377,
            "contract": "contracts/ETHAmsterdamFaucet.sol:ETHAmsterdamFaucet",
            "label": "cfa",
            "offset": 0,
            "slot": "1",
            "type": "t_contract(IConstantFlowAgreementV1)1396"
          }
        ],
        "numberOfBytes": "64"
      }
    }
  }
}