{
  "address": "0xD157b900532aED20709eF0e313896d7683BbEED4",
  "abi": [
    {
      "inputs": [
        {
          "internalType": "contract ISuperToken",
          "name": "_frens",
          "type": "address"
        },
        {
          "internalType": "contract ISuperfluid",
          "name": "host",
          "type": "address"
        }
      ],
      "stateMutability": "nonpayable",
      "type": "constructor"
    },
    {
      "anonymous": false,
      "inputs": [
        {
          "indexed": true,
          "internalType": "address",
          "name": "previousOwner",
          "type": "address"
        },
        {
          "indexed": true,
          "internalType": "address",
          "name": "newOwner",
          "type": "address"
        }
      ],
      "name": "OwnershipTransferred",
      "type": "event"
    },
    {
      "anonymous": false,
      "inputs": [
        {
          "indexed": false,
          "internalType": "address",
          "name": "",
          "type": "address"
        },
        {
          "indexed": false,
          "internalType": "uint256",
          "name": "",
          "type": "uint256"
        }
      ],
      "name": "Received",
      "type": "event"
    },
    {
      "inputs": [],
      "name": "cfaV1",
      "outputs": [
        {
          "internalType": "contract ISuperfluid",
          "name": "host",
          "type": "address"
        },
        {
          "internalType": "contract IConstantFlowAgreementV1",
          "name": "cfa",
          "type": "address"
        }
      ],
      "stateMutability": "view",
      "type": "function"
    },
    {
      "inputs": [
        {
          "internalType": "bytes32",
          "name": "_code",
          "type": "bytes32"
        },
        {
          "internalType": "address payable",
          "name": "receiver",
          "type": "address"
        }
      ],
      "name": "createFlow",
      "outputs": [],
      "stateMutability": "nonpayable",
      "type": "function"
    },
    {
      "inputs": [
        {
          "internalType": "address",
          "name": "receiver",
          "type": "address"
        }
      ],
      "name": "createFlowFromOwner",
      "outputs": [],
      "stateMutability": "nonpayable",
      "type": "function"
    },
    {
      "inputs": [
        {
          "internalType": "address",
          "name": "receiver",
          "type": "address"
        }
      ],
      "name": "deleteFlow",
      "outputs": [],
      "stateMutability": "nonpayable",
      "type": "function"
    },
    {
      "inputs": [],
      "name": "frens",
      "outputs": [
        {
          "internalType": "contract ISuperToken",
          "name": "",
          "type": "address"
        }
      ],
      "stateMutability": "view",
      "type": "function"
    },
    {
      "inputs": [
        {
          "internalType": "uint256",
          "name": "amount",
          "type": "uint256"
        }
      ],
      "name": "fundContract",
      "outputs": [],
      "stateMutability": "nonpayable",
      "type": "function"
    },
    {
      "inputs": [],
      "name": "owner",
      "outputs": [
        {
          "internalType": "address",
          "name": "",
          "type": "address"
        }
      ],
      "stateMutability": "view",
      "type": "function"
    },
    {
      "inputs": [],
      "name": "renounceOwnership",
      "outputs": [],
      "stateMutability": "nonpayable",
      "type": "function"
    },
    {
      "inputs": [
        {
          "internalType": "address",
          "name": "newOwner",
          "type": "address"
        }
      ],
      "name": "transferOwnership",
      "outputs": [],
      "stateMutability": "nonpayable",
      "type": "function"
    },
    {
      "inputs": [
        {
          "internalType": "address",
          "name": "receiver",
          "type": "address"
        },
        {
          "internalType": "int96",
          "name": "amount",
          "type": "int96"
        }
      ],
      "name": "updateFlow",
      "outputs": [],
      "stateMutability": "nonpayable",
      "type": "function"
    },
    {
      "inputs": [
        {
          "internalType": "address",
          "name": "",
          "type": "address"
        }
      ],
      "name": "usedAddresses",
      "outputs": [
        {
          "internalType": "bool",
          "name": "",
          "type": "bool"
        }
      ],
      "stateMutability": "view",
      "type": "function"
    },
    {
      "inputs": [
        {
          "internalType": "bytes32",
          "name": "",
          "type": "bytes32"
        }
      ],
      "name": "usedCodes",
      "outputs": [
        {
          "internalType": "bool",
          "name": "",
          "type": "bool"
        }
      ],
      "stateMutability": "view",
      "type": "function"
    },
    {
      "inputs": [
        {
          "internalType": "uint256",
          "name": "amount",
          "type": "uint256"
        }
      ],
      "name": "withdrawETH",
      "outputs": [],
      "stateMutability": "nonpayable",
      "type": "function"
    },
    {
      "inputs": [
        {
          "internalType": "uint256",
          "name": "amount",
          "type": "uint256"
        }
      ],
      "name": "withdrawFunds",
      "outputs": [],
      "stateMutability": "nonpayable",
      "type": "function"
    },
    {
      "stateMutability": "payable",
      "type": "receive"
    }
  ],
  "transactionHash": "0x91b9c9b57e115f85690921e3900a7273ae90b36f41ac5a325da2be64c786044f",
  "args": [
    "0x738ab61234dA221d6d63EBac5a82222839635727",
    "0xF0d7d1D47109bA426B9D8A3Cde1941327af1eea3"
  ],
  "numDeployments": 1,
  "solcInputHash": "532789360fb3fc8220c2ab7611f2217b",
  "bytecode": "0x60806040523480156200001157600080fd5b50604051620022f6380380620022f68339818101604052810190620000379190620003a1565b620000576200004b6200021260201b60201c565b6200021a60201b60201c565b81600360006101000a81548173ffffffffffffffffffffffffffffffffffffffff021916908373ffffffffffffffffffffffffffffffffffffffff16021790555060405180604001604052808273ffffffffffffffffffffffffffffffffffffffff1681526020018273ffffffffffffffffffffffffffffffffffffffff1663b6d200de7fa9214cc96615e0085d3bb077758db69497dc2dce3b2b1e97bc93c3d18d83efd36040518263ffffffff1660e01b81526004016200011a919062000403565b602060405180830381865afa15801562000138573d6000803e3d6000fd5b505050506040513d601f19601f820116820180604052508101906200015e919062000465565b73ffffffffffffffffffffffffffffffffffffffff16815250600160008201518160000160006101000a81548173ffffffffffffffffffffffffffffffffffffffff021916908373ffffffffffffffffffffffffffffffffffffffff16021790555060208201518160010160006101000a81548173ffffffffffffffffffffffffffffffffffffffff021916908373ffffffffffffffffffffffffffffffffffffffff160217905550905050505062000497565b600033905090565b60008060009054906101000a900473ffffffffffffffffffffffffffffffffffffffff169050816000806101000a81548173ffffffffffffffffffffffffffffffffffffffff021916908373ffffffffffffffffffffffffffffffffffffffff1602179055508173ffffffffffffffffffffffffffffffffffffffff168173ffffffffffffffffffffffffffffffffffffffff167f8be0079c531659141344cd1fd0a4f28419497f9722a3daafe3b4186f6b6457e060405160405180910390a35050565b600080fd5b600073ffffffffffffffffffffffffffffffffffffffff82169050919050565b60006200031082620002e3565b9050919050565b6000620003248262000303565b9050919050565b620003368162000317565b81146200034257600080fd5b50565b60008151905062000356816200032b565b92915050565b6000620003698262000303565b9050919050565b6200037b816200035c565b81146200038757600080fd5b50565b6000815190506200039b8162000370565b92915050565b60008060408385031215620003bb57620003ba620002de565b5b6000620003cb8582860162000345565b9250506020620003de858286016200038a565b9150509250929050565b6000819050919050565b620003fd81620003e8565b82525050565b60006020820190506200041a6000830184620003f2565b92915050565b60006200042d8262000303565b9050919050565b6200043f8162000420565b81146200044b57600080fd5b50565b6000815190506200045f8162000434565b92915050565b6000602082840312156200047e576200047d620002de565b5b60006200048e848285016200044e565b91505092915050565b611e4f80620004a76000396000f3fe6080604052600436106100e15760003560e01c8063904077a01161007f578063d3112b2e11610059578063d3112b2e146102da578063f14210a614610306578063f2fde38b1461032f578063f53d93c71461035857610121565b8063904077a014610235578063acdce27314610272578063b5b4ab7f146102af57610121565b806345f02b0a116100bb57806345f02b0a146101a1578063715018a6146101ca5780638bf08bb6146101e15780638da5cb5b1461020a57610121565b8063155dd5ee146101265780633519a2f81461014f57806336a4c40f1461017857610121565b36610121577f88a5966d370b9919b20f3e2c13ff65706f196a4e32cc2c12bf57088f885258743334604051610117929190611412565b60405180910390a1005b600080fd5b34801561013257600080fd5b5061014d6004803603810190610148919061147b565b610381565b005b34801561015b57600080fd5b506101766004803603810190610171919061147b565b6104a1565b005b34801561018457600080fd5b5061019f600480360381019061019a919061151c565b6105c3565b005b3480156101ad57600080fd5b506101c860048036038101906101c39190611588565b61085e565b005b3480156101d657600080fd5b506101df61091e565b005b3480156101ed57600080fd5b50610208600480360381019061020391906115ee565b6109a6565b005b34801561021657600080fd5b5061021f610a60565b60405161022c919061162e565b60405180910390f35b34801561024157600080fd5b5061025c60048036038101906102579190611649565b610a89565b6040516102699190611691565b60405180910390f35b34801561027e57600080fd5b5061029960048036038101906102949190611588565b610aa9565b6040516102a69190611691565b60405180910390f35b3480156102bb57600080fd5b506102c4610ac9565b6040516102d1919061170b565b60405180910390f35b3480156102e657600080fd5b506102ef610aef565b6040516102fd929190611768565b60405180910390f35b34801561031257600080fd5b5061032d6004803603810190610328919061147b565b610b41565b005b34801561033b57600080fd5b5061035660048036038101906103519190611588565b610c6d565b005b34801561036457600080fd5b5061037f600480360381019061037a9190611588565b610d65565b005b610389610e1e565b73ffffffffffffffffffffffffffffffffffffffff166103a7610a60565b73ffffffffffffffffffffffffffffffffffffffff16146103fd576040517f08c379a00000000000000000000000000000000000000000000000000000000081526004016103f4906117ee565b60405180910390fd5b600360009054906101000a900473ffffffffffffffffffffffffffffffffffffffff1673ffffffffffffffffffffffffffffffffffffffff1663a9059cbb33836040518363ffffffff1660e01b815260040161045a929190611412565b6020604051808303816000875af1158015610479573d6000803e3d6000fd5b505050506040513d601f19601f8201168201806040525081019061049d919061183a565b5050565b6104a9610e1e565b73ffffffffffffffffffffffffffffffffffffffff166104c7610a60565b73ffffffffffffffffffffffffffffffffffffffff161461051d576040517f08c379a0000000000000000000000000000000000000000000000000000000008152600401610514906117ee565b60405180910390fd5b600360009054906101000a900473ffffffffffffffffffffffffffffffffffffffff1673ffffffffffffffffffffffffffffffffffffffff166323b872dd3330846040518463ffffffff1660e01b815260040161057c93929190611867565b6020604051808303816000875af115801561059b573d6000803e3d6000fd5b505050506040513d601f19601f820116820180604052508101906105bf919061183a565b5050565b6105cb610e1e565b73ffffffffffffffffffffffffffffffffffffffff166105e9610a60565b73ffffffffffffffffffffffffffffffffffffffff161461063f576040517f08c379a0000000000000000000000000000000000000000000000000000000008152600401610636906117ee565b60405180910390fd5b600015156004600084815260200190815260200160002060009054906101000a900460ff161515146106a6576040517f08c379a000000000000000000000000000000000000000000000000000000000815260040161069d906118ea565b60405180910390fd5b60001515600560008373ffffffffffffffffffffffffffffffffffffffff1673ffffffffffffffffffffffffffffffffffffffff16815260200190815260200160002060009054906101000a900460ff16151514610739576040517f08c379a000000000000000000000000000000000000000000000000000000000815260040161073090611956565b60405180910390fd5b60016004600084815260200190815260200160002060006101000a81548160ff0219169083151502179055506107a681600360009054906101000a900473ffffffffffffffffffffffffffffffffffffffff1666291e8f1dca0bda6001610e26909392919063ffffffff16565b60008173ffffffffffffffffffffffffffffffffffffffff16662386f26fc100006040516107d3906119a7565b60006040518083038185875af1925050503d8060008114610810576040519150601f19603f3d011682016040523d82523d6000602084013e610815565b606091505b5050905080610859576040517f08c379a000000000000000000000000000000000000000000000000000000000815260040161085090611a08565b60405180910390fd5b505050565b610866610e1e565b73ffffffffffffffffffffffffffffffffffffffff16610884610a60565b73ffffffffffffffffffffffffffffffffffffffff16146108da576040517f08c379a00000000000000000000000000000000000000000000000000000000081526004016108d1906117ee565b60405180910390fd5b61091b81600360009054906101000a900473ffffffffffffffffffffffffffffffffffffffff1666291e8f1dca0bda6001610e26909392919063ffffffff16565b50565b610926610e1e565b73ffffffffffffffffffffffffffffffffffffffff16610944610a60565b73ffffffffffffffffffffffffffffffffffffffff161461099a576040517f08c379a0000000000000000000000000000000000000000000000000000000008152600401610991906117ee565b60405180910390fd5b6109a46000610fc0565b565b6109ae610e1e565b73ffffffffffffffffffffffffffffffffffffffff166109cc610a60565b73ffffffffffffffffffffffffffffffffffffffff1614610a22576040517f08c379a0000000000000000000000000000000000000000000000000000000008152600401610a19906117ee565b60405180910390fd5b610a5c82600360009054906101000a900473ffffffffffffffffffffffffffffffffffffffff16836001611084909392919063ffffffff16565b5050565b60008060009054906101000a900473ffffffffffffffffffffffffffffffffffffffff16905090565b60046020528060005260406000206000915054906101000a900460ff1681565b60056020528060005260406000206000915054906101000a900460ff1681565b600360009054906101000a900473ffffffffffffffffffffffffffffffffffffffff1681565b60018060000160009054906101000a900473ffffffffffffffffffffffffffffffffffffffff16908060010160009054906101000a900473ffffffffffffffffffffffffffffffffffffffff16905082565b610b49610e1e565b73ffffffffffffffffffffffffffffffffffffffff16610b67610a60565b73ffffffffffffffffffffffffffffffffffffffff1614610bbd576040517f08c379a0000000000000000000000000000000000000000000000000000000008152600401610bb4906117ee565b60405180910390fd5b60003373ffffffffffffffffffffffffffffffffffffffff1682604051610be3906119a7565b60006040518083038185875af1925050503d8060008114610c20576040519150601f19603f3d011682016040523d82523d6000602084013e610c25565b606091505b5050905080610c69576040517f08c379a0000000000000000000000000000000000000000000000000000000008152600401610c6090611a08565b60405180910390fd5b5050565b610c75610e1e565b73ffffffffffffffffffffffffffffffffffffffff16610c93610a60565b73ffffffffffffffffffffffffffffffffffffffff1614610ce9576040517f08c379a0000000000000000000000000000000000000000000000000000000008152600401610ce0906117ee565b60405180910390fd5b600073ffffffffffffffffffffffffffffffffffffffff168173ffffffffffffffffffffffffffffffffffffffff161415610d59576040517f08c379a0000000000000000000000000000000000000000000000000000000008152600401610d5090611a9a565b60405180910390fd5b610d6281610fc0565b50565b610d6d610e1e565b73ffffffffffffffffffffffffffffffffffffffff16610d8b610a60565b73ffffffffffffffffffffffffffffffffffffffff1614610de1576040517f08c379a0000000000000000000000000000000000000000000000000000000008152600401610dd8906117ee565b60405180910390fd5b610e1b3082600360009054906101000a900473ffffffffffffffffffffffffffffffffffffffff16600161121e909392919063ffffffff16565b50565b600033905090565b8360000160009054906101000a900473ffffffffffffffffffffffffffffffffffffffff1673ffffffffffffffffffffffffffffffffffffffff166339255d5b8560010160009054906101000a900473ffffffffffffffffffffffffffffffffffffffff166362fc305e60e01b858786600067ffffffffffffffff811115610eb157610eb0611aba565b5b6040519080825280601f01601f191660200182016040528015610ee35781602001600182028036833780820191505090505b50604051602401610ef79493929190611bb2565b604051602081830303815290604052907bffffffffffffffffffffffffffffffffffffffffffffffffffffffff19166020820180517bffffffffffffffffffffffffffffffffffffffffffffffffffffffff83818316178352505050506040518363ffffffff1660e01b8152600401610f71929190611c4a565b6000604051808303816000875af1158015610f90573d6000803e3d6000fd5b505050506040513d6000823e3d601f19601f82011682018060405250810190610fb99190611d84565b5050505050565b60008060009054906101000a900473ffffffffffffffffffffffffffffffffffffffff169050816000806101000a81548173ffffffffffffffffffffffffffffffffffffffff021916908373ffffffffffffffffffffffffffffffffffffffff1602179055508173ffffffffffffffffffffffffffffffffffffffff168173ffffffffffffffffffffffffffffffffffffffff167f8be0079c531659141344cd1fd0a4f28419497f9722a3daafe3b4186f6b6457e060405160405180910390a35050565b8360000160009054906101000a900473ffffffffffffffffffffffffffffffffffffffff1673ffffffffffffffffffffffffffffffffffffffff166339255d5b8560010160009054906101000a900473ffffffffffffffffffffffffffffffffffffffff166350209a6260e01b858786600067ffffffffffffffff81111561110f5761110e611aba565b5b6040519080825280601f01601f1916602001820160405280156111415781602001600182028036833780820191505090505b506040516024016111559493929190611bb2565b604051602081830303815290604052907bffffffffffffffffffffffffffffffffffffffffffffffffffffffff19166020820180517bffffffffffffffffffffffffffffffffffffffffffffffffffffffff83818316178352505050506040518363ffffffff1660e01b81526004016111cf929190611c4a565b6000604051808303816000875af11580156111ee573d6000803e3d6000fd5b505050506040513d6000823e3d601f19601f820116820180604052508101906112179190611d84565b5050505050565b8360000160009054906101000a900473ffffffffffffffffffffffffffffffffffffffff1673ffffffffffffffffffffffffffffffffffffffff166339255d5b8560010160009054906101000a900473ffffffffffffffffffffffffffffffffffffffff1663b4b333c660e01b848787600067ffffffffffffffff8111156112a9576112a8611aba565b5b6040519080825280601f01601f1916602001820160405280156112db5781602001600182028036833780820191505090505b506040516024016112ef9493929190611dcd565b604051602081830303815290604052907bffffffffffffffffffffffffffffffffffffffffffffffffffffffff19166020820180517bffffffffffffffffffffffffffffffffffffffffffffffffffffffff83818316178352505050506040518363ffffffff1660e01b8152600401611369929190611c4a565b6000604051808303816000875af1158015611388573d6000803e3d6000fd5b505050506040513d6000823e3d601f19601f820116820180604052508101906113b19190611d84565b5050505050565b600073ffffffffffffffffffffffffffffffffffffffff82169050919050565b60006113e3826113b8565b9050919050565b6113f3816113d8565b82525050565b6000819050919050565b61140c816113f9565b82525050565b600060408201905061142760008301856113ea565b6114346020830184611403565b9392505050565b6000604051905090565b600080fd5b600080fd5b611458816113f9565b811461146357600080fd5b50565b6000813590506114758161144f565b92915050565b60006020828403121561149157611490611445565b5b600061149f84828501611466565b91505092915050565b6000819050919050565b6114bb816114a8565b81146114c657600080fd5b50565b6000813590506114d8816114b2565b92915050565b60006114e9826113b8565b9050919050565b6114f9816114de565b811461150457600080fd5b50565b600081359050611516816114f0565b92915050565b6000806040838503121561153357611532611445565b5b6000611541858286016114c9565b925050602061155285828601611507565b9150509250929050565b611565816113d8565b811461157057600080fd5b50565b6000813590506115828161155c565b92915050565b60006020828403121561159e5761159d611445565b5b60006115ac84828501611573565b91505092915050565b600081600b0b9050919050565b6115cb816115b5565b81146115d657600080fd5b50565b6000813590506115e8816115c2565b92915050565b6000806040838503121561160557611604611445565b5b600061161385828601611573565b9250506020611624858286016115d9565b9150509250929050565b600060208201905061164360008301846113ea565b92915050565b60006020828403121561165f5761165e611445565b5b600061166d848285016114c9565b91505092915050565b60008115159050919050565b61168b81611676565b82525050565b60006020820190506116a66000830184611682565b92915050565b6000819050919050565b60006116d16116cc6116c7846113b8565b6116ac565b6113b8565b9050919050565b60006116e3826116b6565b9050919050565b60006116f5826116d8565b9050919050565b611705816116ea565b82525050565b600060208201905061172060008301846116fc565b92915050565b6000611731826116d8565b9050919050565b61174181611726565b82525050565b6000611752826116d8565b9050919050565b61176281611747565b82525050565b600060408201905061177d6000830185611738565b61178a6020830184611759565b9392505050565b600082825260208201905092915050565b7f4f776e61626c653a2063616c6c6572206973206e6f7420746865206f776e6572600082015250565b60006117d8602083611791565b91506117e3826117a2565b602082019050919050565b60006020820190508181036000830152611807816117cb565b9050919050565b61181781611676565b811461182257600080fd5b50565b6000815190506118348161180e565b92915050565b6000602082840312156118505761184f611445565b5b600061185e84828501611825565b91505092915050565b600060608201905061187c60008301866113ea565b61188960208301856113ea565b6118966040830184611403565b949350505050565b7f636f64652068617320616c7265616479206265656e2075736564000000000000600082015250565b60006118d4601a83611791565b91506118df8261189e565b602082019050919050565b60006020820190508181036000830152611903816118c7565b9050919050565b7f616464726573732068617320616c7265616479206265656e2075736564000000600082015250565b6000611940601d83611791565b915061194b8261190a565b602082019050919050565b6000602082019050818103600083015261196f81611933565b9050919050565b600081905092915050565b50565b6000611991600083611976565b915061199c82611981565b600082019050919050565b60006119b282611984565b9150819050919050565b7f4661696c656420746f2073656e64204574686572000000000000000000000000600082015250565b60006119f2601483611791565b91506119fd826119bc565b602082019050919050565b60006020820190508181036000830152611a21816119e5565b9050919050565b7f4f776e61626c653a206e6577206f776e657220697320746865207a65726f206160008201527f6464726573730000000000000000000000000000000000000000000000000000602082015250565b6000611a84602683611791565b9150611a8f82611a28565b604082019050919050565b60006020820190508181036000830152611ab381611a77565b9050919050565b7f4e487b7100000000000000000000000000000000000000000000000000000000600052604160045260246000fd5b6000611af4826116d8565b9050919050565b611b0481611ae9565b82525050565b611b13816115b5565b82525050565b600081519050919050565b600082825260208201905092915050565b60005b83811015611b53578082015181840152602081019050611b38565b83811115611b62576000848401525b50505050565b6000601f19601f8301169050919050565b6000611b8482611b19565b611b8e8185611b24565b9350611b9e818560208601611b35565b611ba781611b68565b840191505092915050565b6000608082019050611bc76000830187611afb565b611bd460208301866113ea565b611be16040830185611b0a565b8181036060830152611bf38184611b79565b905095945050505050565b7f3078000000000000000000000000000000000000000000000000000000000000600082015250565b6000611c34600283611b24565b9150611c3f82611bfe565b602082019050919050565b6000606082019050611c5f6000830185611759565b8181036020830152611c718184611b79565b90508181036040830152611c8481611c27565b90509392505050565b600080fd5b600080fd5b611ca082611b68565b810181811067ffffffffffffffff82111715611cbf57611cbe611aba565b5b80604052505050565b6000611cd261143b565b9050611cde8282611c97565b919050565b600067ffffffffffffffff821115611cfe57611cfd611aba565b5b611d0782611b68565b9050602081019050919050565b6000611d27611d2284611ce3565b611cc8565b905082815260208101848484011115611d4357611d42611c92565b5b611d4e848285611b35565b509392505050565b600082601f830112611d6b57611d6a611c8d565b5b8151611d7b848260208601611d14565b91505092915050565b600060208284031215611d9a57611d99611445565b5b600082015167ffffffffffffffff811115611db857611db761144a565b5b611dc484828501611d56565b91505092915050565b6000608082019050611de26000830187611afb565b611def60208301866113ea565b611dfc60408301856113ea565b8181036060830152611e0e8184611b79565b90509594505050505056fea26469706673582212201a620a147a51363dae7fa6a533a2674bc7a3e974ad1b99005853924e093a7e7164736f6c634300080c0033",
  "devdoc": {
    "kind": "dev",
    "methods": {
      "owner()": {
        "details": "Returns the address of the current owner."
      },
      "renounceOwnership()": {
        "details": "Leaves the contract without owner. It will not be possible to call `onlyOwner` functions anymore. Can only be called by the current owner. NOTE: Renouncing ownership will leave the contract without an owner, thereby removing any functionality that is only available to the owner."
      },
      "transferOwnership(address)": {
        "details": "Transfers ownership of the contract to a new account (`newOwner`). Can only be called by the current owner."
      }
    },
    "version": 1
  },
  "userdoc": {
    "kind": "user",
    "methods": {},
    "version": 1
  },
  "storageLayout": {
    "storage": [
      {
        "astId": 7,
        "contract": "contracts/ETHAmsterdamFaucet.sol:ETHAmsterdamFaucet",
        "label": "_owner",
        "offset": 0,
        "slot": "0",
        "type": "t_address"
      },
      {
        "astId": 3296,
        "contract": "contracts/ETHAmsterdamFaucet.sol:ETHAmsterdamFaucet",
        "label": "cfaV1",
        "offset": 0,
        "slot": "1",
        "type": "t_struct(InitData)378_storage"
      },
      {
        "astId": 3299,
        "contract": "contracts/ETHAmsterdamFaucet.sol:ETHAmsterdamFaucet",
        "label": "frens",
        "offset": 0,
        "slot": "3",
        "type": "t_contract(ISuperToken)2289"
      },
      {
        "astId": 3335,
        "contract": "contracts/ETHAmsterdamFaucet.sol:ETHAmsterdamFaucet",
        "label": "usedCodes",
        "offset": 0,
        "slot": "4",
        "type": "t_mapping(t_bytes32,t_bool)"
      },
      {
        "astId": 3339,
        "contract": "contracts/ETHAmsterdamFaucet.sol:ETHAmsterdamFaucet",
        "label": "usedAddresses",
        "offset": 0,
        "slot": "5",
        "type": "t_mapping(t_address,t_bool)"
      }
    ],
    "types": {
      "t_address": {
        "encoding": "inplace",
        "label": "address",
        "numberOfBytes": "20"
      },
      "t_bool": {
        "encoding": "inplace",
        "label": "bool",
        "numberOfBytes": "1"
      },
      "t_bytes32": {
        "encoding": "inplace",
        "label": "bytes32",
        "numberOfBytes": "32"
      },
      "t_contract(IConstantFlowAgreementV1)1396": {
        "encoding": "inplace",
        "label": "contract IConstantFlowAgreementV1",
        "numberOfBytes": "20"
      },
      "t_contract(ISuperToken)2289": {
        "encoding": "inplace",
        "label": "contract ISuperToken",
        "numberOfBytes": "20"
      },
      "t_contract(ISuperfluid)2845": {
        "encoding": "inplace",
        "label": "contract ISuperfluid",
        "numberOfBytes": "20"
      },
      "t_mapping(t_address,t_bool)": {
        "encoding": "mapping",
        "key": "t_address",
        "label": "mapping(address => bool)",
        "numberOfBytes": "32",
        "value": "t_bool"
      },
      "t_mapping(t_bytes32,t_bool)": {
        "encoding": "mapping",
        "key": "t_bytes32",
        "label": "mapping(bytes32 => bool)",
        "numberOfBytes": "32",
        "value": "t_bool"
      },
      "t_struct(InitData)378_storage": {
        "encoding": "inplace",
        "label": "struct CFAv1Library.InitData",
        "members": [
          {
            "astId": 374,
            "contract": "contracts/ETHAmsterdamFaucet.sol:ETHAmsterdamFaucet",
            "label": "host",
            "offset": 0,
            "slot": "0",
            "type": "t_contract(ISuperfluid)2845"
          },
          {
            "astId": 377,
            "contract": "contracts/ETHAmsterdamFaucet.sol:ETHAmsterdamFaucet",
            "label": "cfa",
            "offset": 0,
            "slot": "1",
            "type": "t_contract(IConstantFlowAgreementV1)1396"
          }
        ],
        "numberOfBytes": "64"
      }
    }
  }
}