{
  "address": "0x40CC9A25704C9050ea21eB5a34726FC56CFAF9BA",
  "abi": [
    {
      "inputs": [
        {
          "internalType": "contract ISuperToken",
          "name": "_frens",
          "type": "address"
        },
        {
          "internalType": "contract ISuperfluid",
          "name": "host",
          "type": "address"
        }
      ],
      "stateMutability": "nonpayable",
      "type": "constructor"
    },
    {
      "anonymous": false,
      "inputs": [
        {
          "indexed": true,
          "internalType": "address",
          "name": "previousOwner",
          "type": "address"
        },
        {
          "indexed": true,
          "internalType": "address",
          "name": "newOwner",
          "type": "address"
        }
      ],
      "name": "OwnershipTransferred",
      "type": "event"
    },
    {
      "anonymous": false,
      "inputs": [
        {
          "indexed": false,
          "internalType": "address",
          "name": "",
          "type": "address"
        },
        {
          "indexed": false,
          "internalType": "uint256",
          "name": "",
          "type": "uint256"
        }
      ],
      "name": "Received",
      "type": "event"
    },
    {
      "inputs": [],
      "name": "cfa",
      "outputs": [
        {
          "internalType": "contract IConstantFlowAgreementV1",
          "name": "",
          "type": "address"
        }
      ],
      "stateMutability": "view",
      "type": "function"
    },
    {
      "inputs": [],
      "name": "cfaV1",
      "outputs": [
        {
          "internalType": "contract ISuperfluid",
          "name": "host",
          "type": "address"
        },
        {
          "internalType": "contract IConstantFlowAgreementV1",
          "name": "cfa",
          "type": "address"
        }
      ],
      "stateMutability": "view",
      "type": "function"
    },
    {
      "inputs": [
        {
          "internalType": "bytes32",
          "name": "_code",
          "type": "bytes32"
        },
        {
          "internalType": "address payable",
          "name": "receiver",
          "type": "address"
        }
      ],
      "name": "createFlow",
      "outputs": [],
      "stateMutability": "nonpayable",
      "type": "function"
    },
    {
      "inputs": [
        {
          "internalType": "address",
          "name": "receiver",
          "type": "address"
        }
      ],
      "name": "createFlowFromOwner",
      "outputs": [],
      "stateMutability": "nonpayable",
      "type": "function"
    },
    {
      "inputs": [
        {
          "internalType": "address",
          "name": "receiver",
          "type": "address"
        }
      ],
      "name": "deleteFlow",
      "outputs": [],
      "stateMutability": "nonpayable",
      "type": "function"
    },
    {
      "inputs": [],
      "name": "frens",
      "outputs": [
        {
          "internalType": "contract ISuperToken",
          "name": "",
          "type": "address"
        }
      ],
      "stateMutability": "view",
      "type": "function"
    },
    {
      "inputs": [
        {
          "internalType": "uint256",
          "name": "amount",
          "type": "uint256"
        }
      ],
      "name": "fundContract",
      "outputs": [],
      "stateMutability": "nonpayable",
      "type": "function"
    },
    {
      "inputs": [],
      "name": "owner",
      "outputs": [
        {
          "internalType": "address",
          "name": "",
          "type": "address"
        }
      ],
      "stateMutability": "view",
      "type": "function"
    },
    {
      "inputs": [],
      "name": "renounceOwnership",
      "outputs": [],
      "stateMutability": "nonpayable",
      "type": "function"
    },
    {
      "inputs": [
        {
          "internalType": "address",
          "name": "newOwner",
          "type": "address"
        }
      ],
      "name": "transferOwnership",
      "outputs": [],
      "stateMutability": "nonpayable",
      "type": "function"
    },
    {
      "inputs": [
        {
          "internalType": "address",
          "name": "receiver",
          "type": "address"
        },
        {
          "internalType": "int96",
          "name": "amount",
          "type": "int96"
        }
      ],
      "name": "updateFlow",
      "outputs": [],
      "stateMutability": "nonpayable",
      "type": "function"
    },
    {
      "inputs": [
        {
          "internalType": "address",
          "name": "",
          "type": "address"
        }
      ],
      "name": "usedAddresses",
      "outputs": [
        {
          "internalType": "bool",
          "name": "",
          "type": "bool"
        }
      ],
      "stateMutability": "view",
      "type": "function"
    },
    {
      "inputs": [
        {
          "internalType": "bytes32",
          "name": "",
          "type": "bytes32"
        }
      ],
      "name": "usedCodes",
      "outputs": [
        {
          "internalType": "bool",
          "name": "",
          "type": "bool"
        }
      ],
      "stateMutability": "view",
      "type": "function"
    },
    {
      "inputs": [
        {
          "internalType": "uint256",
          "name": "amount",
          "type": "uint256"
        }
      ],
      "name": "withdrawETH",
      "outputs": [],
      "stateMutability": "nonpayable",
      "type": "function"
    },
    {
      "inputs": [
        {
          "internalType": "uint256",
          "name": "amount",
          "type": "uint256"
        }
      ],
      "name": "withdrawFunds",
      "outputs": [],
      "stateMutability": "nonpayable",
      "type": "function"
    },
    {
      "stateMutability": "payable",
      "type": "receive"
    }
  ],
  "transactionHash": "0xf3dccdfbb04e4a38399f5990678bc5655a843871c09a4b2c12fd6bf1d709c8b5",
  "args": [
    "0x738ab61234dA221d6d63EBac5a82222839635727",
    "0xF0d7d1D47109bA426B9D8A3Cde1941327af1eea3"
  ],
  "numDeployments": 4,
  "solcInputHash": "fdb8f01715f17d1d89bccfe9b7f55cab",
  "bytecode": "0x60806040523480156200001157600080fd5b506040516200244c3803806200244c833981810160405281019062000037919062000480565b620000576200004b620002f160201b60201c565b620002f960201b60201c565b81600360006101000a81548173ffffffffffffffffffffffffffffffffffffffff021916908373ffffffffffffffffffffffffffffffffffffffff16021790555060405180604001604052808273ffffffffffffffffffffffffffffffffffffffff1681526020018273ffffffffffffffffffffffffffffffffffffffff1663b6d200de7fa9214cc96615e0085d3bb077758db69497dc2dce3b2b1e97bc93c3d18d83efd36040518263ffffffff1660e01b81526004016200011a9190620004e2565b602060405180830381865afa15801562000138573d6000803e3d6000fd5b505050506040513d601f19601f820116820180604052508101906200015e919062000544565b73ffffffffffffffffffffffffffffffffffffffff16815250600160008201518160000160006101000a81548173ffffffffffffffffffffffffffffffffffffffff021916908373ffffffffffffffffffffffffffffffffffffffff16021790555060208201518160010160006101000a81548173ffffffffffffffffffffffffffffffffffffffff021916908373ffffffffffffffffffffffffffffffffffffffff1602179055509050508073ffffffffffffffffffffffffffffffffffffffff1663b6d200de7fa9214cc96615e0085d3bb077758db69497dc2dce3b2b1e97bc93c3d18d83efd36040518263ffffffff1660e01b8152600401620002659190620004e2565b602060405180830381865afa15801562000283573d6000803e3d6000fd5b505050506040513d601f19601f82011682018060405250810190620002a9919062000544565b600460006101000a81548173ffffffffffffffffffffffffffffffffffffffff021916908373ffffffffffffffffffffffffffffffffffffffff160217905550505062000576565b600033905090565b60008060009054906101000a900473ffffffffffffffffffffffffffffffffffffffff169050816000806101000a81548173ffffffffffffffffffffffffffffffffffffffff021916908373ffffffffffffffffffffffffffffffffffffffff1602179055508173ffffffffffffffffffffffffffffffffffffffff168173ffffffffffffffffffffffffffffffffffffffff167f8be0079c531659141344cd1fd0a4f28419497f9722a3daafe3b4186f6b6457e060405160405180910390a35050565b600080fd5b600073ffffffffffffffffffffffffffffffffffffffff82169050919050565b6000620003ef82620003c2565b9050919050565b60006200040382620003e2565b9050919050565b6200041581620003f6565b81146200042157600080fd5b50565b60008151905062000435816200040a565b92915050565b60006200044882620003e2565b9050919050565b6200045a816200043b565b81146200046657600080fd5b50565b6000815190506200047a816200044f565b92915050565b600080604083850312156200049a5762000499620003bd565b5b6000620004aa8582860162000424565b9250506020620004bd8582860162000469565b9150509250929050565b6000819050919050565b620004dc81620004c7565b82525050565b6000602082019050620004f96000830184620004d1565b92915050565b60006200050c82620003e2565b9050919050565b6200051e81620004ff565b81146200052a57600080fd5b50565b6000815190506200053e8162000513565b92915050565b6000602082840312156200055d576200055c620003bd565b5b60006200056d848285016200052d565b91505092915050565b611ec680620005866000396000f3fe6080604052600436106100ec5760003560e01c80638da5cb5b1161008a578063d3112b2e11610059578063d3112b2e14610310578063f14210a61461033c578063f2fde38b14610365578063f53d93c71461038e5761012c565b80638da5cb5b14610240578063904077a01461026b578063acdce273146102a8578063b5b4ab7f146102e55761012c565b806336a4c40f116100c657806336a4c40f146101ae57806345f02b0a146101d7578063715018a6146102005780638bf08bb6146102175761012c565b80631054df8c14610131578063155dd5ee1461015c5780633519a2f8146101855761012c565b3661012c577f88a5966d370b9919b20f3e2c13ff65706f196a4e32cc2c12bf57088f88525874333460405161012292919061146e565b60405180910390a1005b600080fd5b34801561013d57600080fd5b506101466103b7565b60405161015391906114f6565b60405180910390f35b34801561016857600080fd5b50610183600480360381019061017e9190611551565b6103dd565b005b34801561019157600080fd5b506101ac60048036038101906101a79190611551565b6104fd565b005b3480156101ba57600080fd5b506101d560048036038101906101d091906115f2565b61061f565b005b3480156101e357600080fd5b506101fe60048036038101906101f9919061165e565b6108ba565b005b34801561020c57600080fd5b5061021561097a565b005b34801561022357600080fd5b5061023e600480360381019061023991906116c4565b610a02565b005b34801561024c57600080fd5b50610255610abc565b6040516102629190611704565b60405180910390f35b34801561027757600080fd5b50610292600480360381019061028d919061171f565b610ae5565b60405161029f9190611767565b60405180910390f35b3480156102b457600080fd5b506102cf60048036038101906102ca919061165e565b610b05565b6040516102dc9190611767565b60405180910390f35b3480156102f157600080fd5b506102fa610b25565b60405161030791906117a3565b60405180910390f35b34801561031c57600080fd5b50610325610b4b565b6040516103339291906117df565b60405180910390f35b34801561034857600080fd5b50610363600480360381019061035e9190611551565b610b9d565b005b34801561037157600080fd5b5061038c6004803603810190610387919061165e565b610cc9565b005b34801561039a57600080fd5b506103b560048036038101906103b0919061165e565b610dc1565b005b600460009054906101000a900473ffffffffffffffffffffffffffffffffffffffff1681565b6103e5610e7a565b73ffffffffffffffffffffffffffffffffffffffff16610403610abc565b73ffffffffffffffffffffffffffffffffffffffff1614610459576040517f08c379a000000000000000000000000000000000000000000000000000000000815260040161045090611865565b60405180910390fd5b600360009054906101000a900473ffffffffffffffffffffffffffffffffffffffff1673ffffffffffffffffffffffffffffffffffffffff1663a9059cbb33836040518363ffffffff1660e01b81526004016104b692919061146e565b6020604051808303816000875af11580156104d5573d6000803e3d6000fd5b505050506040513d601f19601f820116820180604052508101906104f991906118b1565b5050565b610505610e7a565b73ffffffffffffffffffffffffffffffffffffffff16610523610abc565b73ffffffffffffffffffffffffffffffffffffffff1614610579576040517f08c379a000000000000000000000000000000000000000000000000000000000815260040161057090611865565b60405180910390fd5b600360009054906101000a900473ffffffffffffffffffffffffffffffffffffffff1673ffffffffffffffffffffffffffffffffffffffff166323b872dd3330846040518463ffffffff1660e01b81526004016105d8939291906118de565b6020604051808303816000875af11580156105f7573d6000803e3d6000fd5b505050506040513d601f19601f8201168201806040525081019061061b91906118b1565b5050565b610627610e7a565b73ffffffffffffffffffffffffffffffffffffffff16610645610abc565b73ffffffffffffffffffffffffffffffffffffffff161461069b576040517f08c379a000000000000000000000000000000000000000000000000000000000815260040161069290611865565b60405180910390fd5b600015156005600084815260200190815260200160002060009054906101000a900460ff16151514610702576040517f08c379a00000000000000000000000000000000000000000000000000000000081526004016106f990611961565b60405180910390fd5b60001515600660008373ffffffffffffffffffffffffffffffffffffffff1673ffffffffffffffffffffffffffffffffffffffff16815260200190815260200160002060009054906101000a900460ff16151514610795576040517f08c379a000000000000000000000000000000000000000000000000000000000815260040161078c906119cd565b60405180910390fd5b60016005600084815260200190815260200160002060006101000a81548160ff02191690831515021790555061080281600360009054906101000a900473ffffffffffffffffffffffffffffffffffffffff1666291e8f1dca0bda6001610e82909392919063ffffffff16565b60008173ffffffffffffffffffffffffffffffffffffffff16662386f26fc1000060405161082f90611a1e565b60006040518083038185875af1925050503d806000811461086c576040519150601f19603f3d011682016040523d82523d6000602084013e610871565b606091505b50509050806108b5576040517f08c379a00000000000000000000000000000000000000000000000000000000081526004016108ac90611a7f565b60405180910390fd5b505050565b6108c2610e7a565b73ffffffffffffffffffffffffffffffffffffffff166108e0610abc565b73ffffffffffffffffffffffffffffffffffffffff1614610936576040517f08c379a000000000000000000000000000000000000000000000000000000000815260040161092d90611865565b60405180910390fd5b61097781600360009054906101000a900473ffffffffffffffffffffffffffffffffffffffff1666291e8f1dca0bda6001610e82909392919063ffffffff16565b50565b610982610e7a565b73ffffffffffffffffffffffffffffffffffffffff166109a0610abc565b73ffffffffffffffffffffffffffffffffffffffff16146109f6576040517f08c379a00000000000000000000000000000000000000000000000000000000081526004016109ed90611865565b60405180910390fd5b610a00600061101c565b565b610a0a610e7a565b73ffffffffffffffffffffffffffffffffffffffff16610a28610abc565b73ffffffffffffffffffffffffffffffffffffffff1614610a7e576040517f08c379a0000000000000000000000000000000000000000000000000000000008152600401610a7590611865565b60405180910390fd5b610ab882600360009054906101000a900473ffffffffffffffffffffffffffffffffffffffff168360016110e0909392919063ffffffff16565b5050565b60008060009054906101000a900473ffffffffffffffffffffffffffffffffffffffff16905090565b60056020528060005260406000206000915054906101000a900460ff1681565b60066020528060005260406000206000915054906101000a900460ff1681565b600360009054906101000a900473ffffffffffffffffffffffffffffffffffffffff1681565b60018060000160009054906101000a900473ffffffffffffffffffffffffffffffffffffffff16908060010160009054906101000a900473ffffffffffffffffffffffffffffffffffffffff16905082565b610ba5610e7a565b73ffffffffffffffffffffffffffffffffffffffff16610bc3610abc565b73ffffffffffffffffffffffffffffffffffffffff1614610c19576040517f08c379a0000000000000000000000000000000000000000000000000000000008152600401610c1090611865565b60405180910390fd5b60003373ffffffffffffffffffffffffffffffffffffffff1682604051610c3f90611a1e565b60006040518083038185875af1925050503d8060008114610c7c576040519150601f19603f3d011682016040523d82523d6000602084013e610c81565b606091505b5050905080610cc5576040517f08c379a0000000000000000000000000000000000000000000000000000000008152600401610cbc90611a7f565b60405180910390fd5b5050565b610cd1610e7a565b73ffffffffffffffffffffffffffffffffffffffff16610cef610abc565b73ffffffffffffffffffffffffffffffffffffffff1614610d45576040517f08c379a0000000000000000000000000000000000000000000000000000000008152600401610d3c90611865565b60405180910390fd5b600073ffffffffffffffffffffffffffffffffffffffff168173ffffffffffffffffffffffffffffffffffffffff161415610db5576040517f08c379a0000000000000000000000000000000000000000000000000000000008152600401610dac90611b11565b60405180910390fd5b610dbe8161101c565b50565b610dc9610e7a565b73ffffffffffffffffffffffffffffffffffffffff16610de7610abc565b73ffffffffffffffffffffffffffffffffffffffff1614610e3d576040517f08c379a0000000000000000000000000000000000000000000000000000000008152600401610e3490611865565b60405180910390fd5b610e773082600360009054906101000a900473ffffffffffffffffffffffffffffffffffffffff16600161127a909392919063ffffffff16565b50565b600033905090565b8360000160009054906101000a900473ffffffffffffffffffffffffffffffffffffffff1673ffffffffffffffffffffffffffffffffffffffff166339255d5b8560010160009054906101000a900473ffffffffffffffffffffffffffffffffffffffff166362fc305e60e01b858786600067ffffffffffffffff811115610f0d57610f0c611b31565b5b6040519080825280601f01601f191660200182016040528015610f3f5781602001600182028036833780820191505090505b50604051602401610f539493929190611c29565b604051602081830303815290604052907bffffffffffffffffffffffffffffffffffffffffffffffffffffffff19166020820180517bffffffffffffffffffffffffffffffffffffffffffffffffffffffff83818316178352505050506040518363ffffffff1660e01b8152600401610fcd929190611cc1565b6000604051808303816000875af1158015610fec573d6000803e3d6000fd5b505050506040513d6000823e3d601f19601f820116820180604052508101906110159190611dfb565b5050505050565b60008060009054906101000a900473ffffffffffffffffffffffffffffffffffffffff169050816000806101000a81548173ffffffffffffffffffffffffffffffffffffffff021916908373ffffffffffffffffffffffffffffffffffffffff1602179055508173ffffffffffffffffffffffffffffffffffffffff168173ffffffffffffffffffffffffffffffffffffffff167f8be0079c531659141344cd1fd0a4f28419497f9722a3daafe3b4186f6b6457e060405160405180910390a35050565b8360000160009054906101000a900473ffffffffffffffffffffffffffffffffffffffff1673ffffffffffffffffffffffffffffffffffffffff166339255d5b8560010160009054906101000a900473ffffffffffffffffffffffffffffffffffffffff166350209a6260e01b858786600067ffffffffffffffff81111561116b5761116a611b31565b5b6040519080825280601f01601f19166020018201604052801561119d5781602001600182028036833780820191505090505b506040516024016111b19493929190611c29565b604051602081830303815290604052907bffffffffffffffffffffffffffffffffffffffffffffffffffffffff19166020820180517bffffffffffffffffffffffffffffffffffffffffffffffffffffffff83818316178352505050506040518363ffffffff1660e01b815260040161122b929190611cc1565b6000604051808303816000875af115801561124a573d6000803e3d6000fd5b505050506040513d6000823e3d601f19601f820116820180604052508101906112739190611dfb565b5050505050565b8360000160009054906101000a900473ffffffffffffffffffffffffffffffffffffffff1673ffffffffffffffffffffffffffffffffffffffff166339255d5b8560010160009054906101000a900473ffffffffffffffffffffffffffffffffffffffff1663b4b333c660e01b848787600067ffffffffffffffff81111561130557611304611b31565b5b6040519080825280601f01601f1916602001820160405280156113375781602001600182028036833780820191505090505b5060405160240161134b9493929190611e44565b604051602081830303815290604052907bffffffffffffffffffffffffffffffffffffffffffffffffffffffff19166020820180517bffffffffffffffffffffffffffffffffffffffffffffffffffffffff83818316178352505050506040518363ffffffff1660e01b81526004016113c5929190611cc1565b6000604051808303816000875af11580156113e4573d6000803e3d6000fd5b505050506040513d6000823e3d601f19601f8201168201806040525081019061140d9190611dfb565b5050505050565b600073ffffffffffffffffffffffffffffffffffffffff82169050919050565b600061143f82611414565b9050919050565b61144f81611434565b82525050565b6000819050919050565b61146881611455565b82525050565b60006040820190506114836000830185611446565b611490602083018461145f565b9392505050565b6000819050919050565b60006114bc6114b76114b284611414565b611497565b611414565b9050919050565b60006114ce826114a1565b9050919050565b60006114e0826114c3565b9050919050565b6114f0816114d5565b82525050565b600060208201905061150b60008301846114e7565b92915050565b6000604051905090565b600080fd5b600080fd5b61152e81611455565b811461153957600080fd5b50565b60008135905061154b81611525565b92915050565b6000602082840312156115675761156661151b565b5b60006115758482850161153c565b91505092915050565b6000819050919050565b6115918161157e565b811461159c57600080fd5b50565b6000813590506115ae81611588565b92915050565b60006115bf82611414565b9050919050565b6115cf816115b4565b81146115da57600080fd5b50565b6000813590506115ec816115c6565b92915050565b600080604083850312156116095761160861151b565b5b60006116178582860161159f565b9250506020611628858286016115dd565b9150509250929050565b61163b81611434565b811461164657600080fd5b50565b60008135905061165881611632565b92915050565b6000602082840312156116745761167361151b565b5b600061168284828501611649565b91505092915050565b600081600b0b9050919050565b6116a18161168b565b81146116ac57600080fd5b50565b6000813590506116be81611698565b92915050565b600080604083850312156116db576116da61151b565b5b60006116e985828601611649565b92505060206116fa858286016116af565b9150509250929050565b60006020820190506117196000830184611446565b92915050565b6000602082840312156117355761173461151b565b5b60006117438482850161159f565b91505092915050565b60008115159050919050565b6117618161174c565b82525050565b600060208201905061177c6000830184611758565b92915050565b600061178d826114c3565b9050919050565b61179d81611782565b82525050565b60006020820190506117b86000830184611794565b92915050565b60006117c9826114c3565b9050919050565b6117d9816117be565b82525050565b60006040820190506117f460008301856117d0565b61180160208301846114e7565b9392505050565b600082825260208201905092915050565b7f4f776e61626c653a2063616c6c6572206973206e6f7420746865206f776e6572600082015250565b600061184f602083611808565b915061185a82611819565b602082019050919050565b6000602082019050818103600083015261187e81611842565b9050919050565b61188e8161174c565b811461189957600080fd5b50565b6000815190506118ab81611885565b92915050565b6000602082840312156118c7576118c661151b565b5b60006118d58482850161189c565b91505092915050565b60006060820190506118f36000830186611446565b6119006020830185611446565b61190d604083018461145f565b949350505050565b7f636f64652068617320616c7265616479206265656e2075736564000000000000600082015250565b600061194b601a83611808565b915061195682611915565b602082019050919050565b6000602082019050818103600083015261197a8161193e565b9050919050565b7f616464726573732068617320616c7265616479206265656e2075736564000000600082015250565b60006119b7601d83611808565b91506119c282611981565b602082019050919050565b600060208201905081810360008301526119e6816119aa565b9050919050565b600081905092915050565b50565b6000611a086000836119ed565b9150611a13826119f8565b600082019050919050565b6000611a29826119fb565b9150819050919050565b7f4661696c656420746f2073656e64204574686572000000000000000000000000600082015250565b6000611a69601483611808565b9150611a7482611a33565b602082019050919050565b60006020820190508181036000830152611a9881611a5c565b9050919050565b7f4f776e61626c653a206e6577206f776e657220697320746865207a65726f206160008201527f6464726573730000000000000000000000000000000000000000000000000000602082015250565b6000611afb602683611808565b9150611b0682611a9f565b604082019050919050565b60006020820190508181036000830152611b2a81611aee565b9050919050565b7f4e487b7100000000000000000000000000000000000000000000000000000000600052604160045260246000fd5b6000611b6b826114c3565b9050919050565b611b7b81611b60565b82525050565b611b8a8161168b565b82525050565b600081519050919050565b600082825260208201905092915050565b60005b83811015611bca578082015181840152602081019050611baf565b83811115611bd9576000848401525b50505050565b6000601f19601f8301169050919050565b6000611bfb82611b90565b611c058185611b9b565b9350611c15818560208601611bac565b611c1e81611bdf565b840191505092915050565b6000608082019050611c3e6000830187611b72565b611c4b6020830186611446565b611c586040830185611b81565b8181036060830152611c6a8184611bf0565b905095945050505050565b7f3078000000000000000000000000000000000000000000000000000000000000600082015250565b6000611cab600283611b9b565b9150611cb682611c75565b602082019050919050565b6000606082019050611cd660008301856114e7565b8181036020830152611ce88184611bf0565b90508181036040830152611cfb81611c9e565b90509392505050565b600080fd5b600080fd5b611d1782611bdf565b810181811067ffffffffffffffff82111715611d3657611d35611b31565b5b80604052505050565b6000611d49611511565b9050611d558282611d0e565b919050565b600067ffffffffffffffff821115611d7557611d74611b31565b5b611d7e82611bdf565b9050602081019050919050565b6000611d9e611d9984611d5a565b611d3f565b905082815260208101848484011115611dba57611db9611d09565b5b611dc5848285611bac565b509392505050565b600082601f830112611de257611de1611d04565b5b8151611df2848260208601611d8b565b91505092915050565b600060208284031215611e1157611e1061151b565b5b600082015167ffffffffffffffff811115611e2f57611e2e611520565b5b611e3b84828501611dcd565b91505092915050565b6000608082019050611e596000830187611b72565b611e666020830186611446565b611e736040830185611446565b8181036060830152611e858184611bf0565b90509594505050505056fea2646970667358221220e43ac46a7742c27222a3628fd0e89ee52ef66730c2e53f7145d6a6acc82506d464736f6c634300080c0033",
  "devdoc": {
    "kind": "dev",
    "methods": {
      "owner()": {
        "details": "Returns the address of the current owner."
      },
      "renounceOwnership()": {
        "details": "Leaves the contract without owner. It will not be possible to call `onlyOwner` functions anymore. Can only be called by the current owner. NOTE: Renouncing ownership will leave the contract without an owner, thereby removing any functionality that is only available to the owner."
      },
      "transferOwnership(address)": {
        "details": "Transfers ownership of the contract to a new account (`newOwner`). Can only be called by the current owner."
      }
    },
    "version": 1
  },
  "userdoc": {
    "kind": "user",
    "methods": {},
    "version": 1
  },
  "storageLayout": {
    "storage": [
      {
        "astId": 7,
        "contract": "contracts/ETHAmsterdamFaucet.sol:ETHAmsterdamFaucet",
        "label": "_owner",
        "offset": 0,
        "slot": "0",
        "type": "t_address"
      },
      {
        "astId": 3296,
        "contract": "contracts/ETHAmsterdamFaucet.sol:ETHAmsterdamFaucet",
        "label": "cfaV1",
        "offset": 0,
        "slot": "1",
        "type": "t_struct(InitData)378_storage"
      },
      {
        "astId": 3299,
        "contract": "contracts/ETHAmsterdamFaucet.sol:ETHAmsterdamFaucet",
        "label": "frens",
        "offset": 0,
        "slot": "3",
        "type": "t_contract(ISuperToken)2289"
      },
      {
        "astId": 3302,
        "contract": "contracts/ETHAmsterdamFaucet.sol:ETHAmsterdamFaucet",
        "label": "cfa",
        "offset": 0,
        "slot": "4",
        "type": "t_contract(IConstantFlowAgreementV1)1396"
      },
      {
        "astId": 3352,
        "contract": "contracts/ETHAmsterdamFaucet.sol:ETHAmsterdamFaucet",
        "label": "usedCodes",
        "offset": 0,
        "slot": "5",
        "type": "t_mapping(t_bytes32,t_bool)"
      },
      {
        "astId": 3356,
        "contract": "contracts/ETHAmsterdamFaucet.sol:ETHAmsterdamFaucet",
        "label": "usedAddresses",
        "offset": 0,
        "slot": "6",
        "type": "t_mapping(t_address,t_bool)"
      }
    ],
    "types": {
      "t_address": {
        "encoding": "inplace",
        "label": "address",
        "numberOfBytes": "20"
      },
      "t_bool": {
        "encoding": "inplace",
        "label": "bool",
        "numberOfBytes": "1"
      },
      "t_bytes32": {
        "encoding": "inplace",
        "label": "bytes32",
        "numberOfBytes": "32"
      },
      "t_contract(IConstantFlowAgreementV1)1396": {
        "encoding": "inplace",
        "label": "contract IConstantFlowAgreementV1",
        "numberOfBytes": "20"
      },
      "t_contract(ISuperToken)2289": {
        "encoding": "inplace",
        "label": "contract ISuperToken",
        "numberOfBytes": "20"
      },
      "t_contract(ISuperfluid)2845": {
        "encoding": "inplace",
        "label": "contract ISuperfluid",
        "numberOfBytes": "20"
      },
      "t_mapping(t_address,t_bool)": {
        "encoding": "mapping",
        "key": "t_address",
        "label": "mapping(address => bool)",
        "numberOfBytes": "32",
        "value": "t_bool"
      },
      "t_mapping(t_bytes32,t_bool)": {
        "encoding": "mapping",
        "key": "t_bytes32",
        "label": "mapping(bytes32 => bool)",
        "numberOfBytes": "32",
        "value": "t_bool"
      },
      "t_struct(InitData)378_storage": {
        "encoding": "inplace",
        "label": "struct CFAv1Library.InitData",
        "members": [
          {
            "astId": 374,
            "contract": "contracts/ETHAmsterdamFaucet.sol:ETHAmsterdamFaucet",
            "label": "host",
            "offset": 0,
            "slot": "0",
            "type": "t_contract(ISuperfluid)2845"
          },
          {
            "astId": 377,
            "contract": "contracts/ETHAmsterdamFaucet.sol:ETHAmsterdamFaucet",
            "label": "cfa",
            "offset": 0,
            "slot": "1",
            "type": "t_contract(IConstantFlowAgreementV1)1396"
          }
        ],
        "numberOfBytes": "64"
      }
    }
  }
}